{"contracts/AuditLog.sol":{"AuditLog":{"abi":[{"anonymous":false,"inputs":[{"indexed":true,"internalType":"uint256","name":"index","type":"uint256"},{"indexed":false,"internalType":"string","name":"sender","type":"string"},{"indexed":false,"internalType":"string","name":"receiver","type":"string"},{"indexed":false,"internalType":"bool","name":"granted","type":"bool"}],"name":"LogAdded","type":"event"},{"inputs":[{"internalType":"string","name":"senderId","type":"string"},{"internalType":"string","name":"receiverId","type":"string"},{"internalType":"bytes32","name":"messageHash","type":"bytes32"},{"internalType":"bytes32","name":"ipfsCID","type":"bytes32"},{"internalType":"uint256","name":"sigSize","type":"uint256"},{"internalType":"bool","name":"accessGranted","type":"bool"}],"name":"addLog","outputs":[],"stateMutability":"nonpayable","type":"function"},{"inputs":[{"internalType":"uint256","name":"","type":"uint256"}],"name":"entries","outputs":[{"internalType":"string","name":"senderId","type":"string"},{"internalType":"string","name":"receiverId","type":"string"},{"internalType":"bytes32","name":"messageHash","type":"bytes32"},{"internalType":"bytes32","name":"ipfsCID","type":"bytes32"},{"internalType":"uint256","name":"sigSize","type":"uint256"},{"internalType":"bool","name":"accessGranted","type":"bool"},{"internalType":"uint256","name":"timestamp","type":"uint256"}],"stateMutability":"view","type":"function"},{"inputs":[{"internalType":"uint256","name":"i","type":"uint256"}],"name":"getLog","outputs":[{"components":[{"internalType":"string","name":"senderId","type":"string"},{"internalType":"string","name":"receiverId","type":"string"},{"internalType":"bytes32","name":"messageHash","type":"bytes32"},{"internalType":"bytes32","name":"ipfsCID","type":"bytes32"},{"internalType":"uint256","name":"sigSize","type":"uint256"},{"internalType":"bool","name":"accessGranted","type":"bool"},{"internalType":"uint256","name":"timestamp","type":"uint256"}],"internalType":"struct AuditLog.LogEntry","name":"","type":"tuple"}],"stateMutability":"view","type":"function"},{"inputs":[],"name":"totalLogs","outputs":[{"internalType":"uint256","name":"","type":"uint256"}],"stateMutability":"view","type":"function"}],"evm":{"bytecode":{"linkReferences":{},"object":"608060405234801561001057600080fd5b50610f07806100206000396000f3fe608060405234801561001057600080fd5b506004361061004c5760003560e01c80633206b2c6146100515780638fd17aa414610081578063b30906d41461009d578063e4ce0662146100d3575b600080fd5b61006b6004803603810190610066919061064d565b6100f1565b60405161007891906107f0565b60405180910390f35b61009b600480360381019061009691906108cf565b610294565b005b6100b760048036038101906100b2919061064d565b61044d565b6040516100ca9796959493929190610a15565b60405180910390f35b6100db6105bc565b6040516100e89190610a92565b60405180910390f35b6100f96105c8565b6000828154811061010d5761010c610aad565b5b90600052602060002090600702016040518060e001604052908160008201805461013690610b0b565b80601f016020809104026020016040519081016040528092919081815260200182805461016290610b0b565b80156101af5780601f10610184576101008083540402835291602001916101af565b820191906000526020600020905b81548152906001019060200180831161019257829003601f168201915b505050505081526020016001820180546101c890610b0b565b80601f01602080910402602001604051908101604052809291908181526020018280546101f490610b0b565b80156102415780601f1061021657610100808354040283529160200191610241565b820191906000526020600020905b81548152906001019060200180831161022457829003601f168201915b505050505081526020016002820154815260200160038201548152602001600482015481526020016005820160009054906101000a900460ff161515151581526020016006820154815250509050919050565b60006040518060e001604052808a8a8080601f016020809104026020016040519081016040528093929190818152602001838380828437600081840152601f19601f82011690508083019250505050505050815260200188888080601f016020809104026020016040519081016040528093929190818152602001838380828437600081840152601f19601f820116905080830192505050505050508152602001868152602001858152602001848152602001831515815260200142815250908060018154018082558091505060019003906000526020600020906007020160009091909190915060008201518160000190816103919190610d17565b5060208201518160010190816103a79190610d17565b5060408201518160020155606082015181600301556080820151816004015560a08201518160050160006101000a81548160ff02191690831515021790555060c08201518160060155505060016000805490506104049190610e18565b7f4b14f7b51175af862ccea1e0d2bbf9453254299acb7e3b4c140ba6c6dd983aa7898989898660405161043b959493929190610e88565b60405180910390a25050505050505050565b6000818154811061045d57600080fd5b906000526020600020906007020160009150905080600001805461048090610b0b565b80601f01602080910402602001604051908101604052809291908181526020018280546104ac90610b0b565b80156104f95780601f106104ce576101008083540402835291602001916104f9565b820191906000526020600020905b8154815290600101906020018083116104dc57829003601f168201915b50505050509080600101805461050e90610b0b565b80601f016020809104026020016040519081016040528092919081815260200182805461053a90610b0b565b80156105875780601f1061055c57610100808354040283529160200191610587565b820191906000526020600020905b81548152906001019060200180831161056a57829003601f168201915b5050505050908060020154908060030154908060040154908060050160009054906101000a900460ff16908060060154905087565b60008080549050905090565b6040518060e001604052806060815260200160608152602001600080191681526020016000801916815260200160008152602001600015158152602001600081525090565b600080fd5b600080fd5b6000819050919050565b61062a81610617565b811461063557600080fd5b50565b60008135905061064781610621565b92915050565b6000602082840312156106635761066261060d565b5b600061067184828501610638565b91505092915050565b600081519050919050565b600082825260208201905092915050565b60005b838110156106b4578082015181840152602081019050610699565b60008484015250505050565b6000601f19601f8301169050919050565b60006106dc8261067a565b6106e68185610685565b93506106f6818560208601610696565b6106ff816106c0565b840191505092915050565b6000819050919050565b61071d8161070a565b82525050565b61072c81610617565b82525050565b60008115159050919050565b61074781610732565b82525050565b600060e083016000830151848203600086015261076a82826106d1565b9150506020830151848203602086015261078482826106d1565b91505060408301516107996040860182610714565b5060608301516107ac6060860182610714565b5060808301516107bf6080860182610723565b5060a08301516107d260a086018261073e565b5060c08301516107e560c0860182610723565b508091505092915050565b6000602082019050818103600083015261080a818461074d565b905092915050565b600080fd5b600080fd5b600080fd5b60008083601f84011261083757610836610812565b5b8235905067ffffffffffffffff81111561085457610853610817565b5b6020830191508360018202830111156108705761086f61081c565b5b9250929050565b6108808161070a565b811461088b57600080fd5b50565b60008135905061089d81610877565b92915050565b6108ac81610732565b81146108b757600080fd5b50565b6000813590506108c9816108a3565b92915050565b60008060008060008060008060c0898b0312156108ef576108ee61060d565b5b600089013567ffffffffffffffff81111561090d5761090c610612565b5b6109198b828c01610821565b9850985050602089013567ffffffffffffffff81111561093c5761093b610612565b5b6109488b828c01610821565b9650965050604061095b8b828c0161088e565b945050606061096c8b828c0161088e565b935050608061097d8b828c01610638565b92505060a061098e8b828c016108ba565b9150509295985092959890939650565b600082825260208201905092915050565b60006109ba8261067a565b6109c4818561099e565b93506109d4818560208601610696565b6109dd816106c0565b840191505092915050565b6109f18161070a565b82525050565b610a0081610617565b82525050565b610a0f81610732565b82525050565b600060e0820190508181036000830152610a2f818a6109af565b90508181036020830152610a4381896109af565b9050610a5260408301886109e8565b610a5f60608301876109e8565b610a6c60808301866109f7565b610a7960a0830185610a06565b610a8660c08301846109f7565b98975050505050505050565b6000602082019050610aa760008301846109f7565b92915050565b7f4e487b7100000000000000000000000000000000000000000000000000000000600052603260045260246000fd5b7f4e487b7100000000000000000000000000000000000000000000000000000000600052602260045260246000fd5b60006002820490506001821680610b2357607f821691505b602082108103610b3657610b35610adc565b5b50919050565b7f4e487b7100000000000000000000000000000000000000000000000000000000600052604160045260246000fd5b60008190508160005260206000209050919050565b60006020601f8301049050919050565b600082821b905092915050565b600060088302610bcd7fffffffffffffffffffffffffffffffffffffffffffffffffffffffffffffffff82610b90565b610bd78683610b90565b95508019841693508086168417925050509392505050565b6000819050919050565b6000610c14610c0f610c0a84610617565b610bef565b610617565b9050919050565b6000819050919050565b610c2e83610bf9565b610c42610c3a82610c1b565b848454610b9d565b825550505050565b600090565b610c57610c4a565b610c62818484610c25565b505050565b5b81811015610c8657610c7b600082610c4f565b600181019050610c68565b5050565b601f821115610ccb57610c9c81610b6b565b610ca584610b80565b81016020851015610cb4578190505b610cc8610cc085610b80565b830182610c67565b50505b505050565b600082821c905092915050565b6000610cee60001984600802610cd0565b1980831691505092915050565b6000610d078383610cdd565b9150826002028217905092915050565b610d208261067a565b67ffffffffffffffff811115610d3957610d38610b3c565b5b610d438254610b0b565b610d4e828285610c8a565b600060209050601f831160018114610d815760008415610d6f578287015190505b610d798582610cfb565b865550610de1565b601f198416610d8f86610b6b565b60005b82811015610db757848901518255600182019150602085019450602081019050610d92565b86831015610dd45784890151610dd0601f891682610cdd565b8355505b6001600288020188555050505b505050505050565b7f4e487b7100000000000000000000000000000000000000000000000000000000600052601160045260246000fd5b6000610e2382610617565b9150610e2e83610617565b9250828203905081811115610e4657610e45610de9565b5b92915050565b82818337600083830152505050565b6000610e67838561099e565b9350610e74838584610e4c565b610e7d836106c0565b840190509392505050565b60006060820190508181036000830152610ea3818789610e5b565b90508181036020830152610eb8818587610e5b565b9050610ec76040830184610a06565b969550505050505056fea264697066735822122068fc9a89c56d44aec66966284a2e5f7e89123f089293d1df8dd3dd6c6b4cfe8864736f6c63430008140033","opcodes":"PUSH1 0x80 PUSH1 0x40 MSTORE CALLVALUE DUP1 ISZERO PUSH2 0x10 JUMPI PUSH1 0x0 DUP1 REVERT JUMPDEST POP PUSH2 0xF07 DUP1 PUSH2 0x20 PUSH1 0x0 CODECOPY PUSH1 0x0 RETURN INVALID PUSH1 0x80 PUSH1 0x40 MSTORE CALLVALUE DUP1 ISZERO PUSH2 0x10 JUMPI PUSH1 0x0 DUP1 REVERT JUMPDEST POP PUSH1 0x4 CALLDATASIZE LT PUSH2 0x4C JUMPI PUSH1 0x0 CALLDATALOAD PUSH1 0xE0 SHR DUP1 PUSH4 0x3206B2C6 EQ PUSH2 0x51 JUMPI DUP1 PUSH4 0x8FD17AA4 EQ PUSH2 0x81 JUMPI DUP1 PUSH4 0xB30906D4 EQ PUSH2 0x9D JUMPI DUP1 PUSH4 0xE4CE0662 EQ PUSH2 0xD3 JUMPI JUMPDEST PUSH1 0x0 DUP1 REVERT JUMPDEST PUSH2 0x6B PUSH1 0x4 DUP1 CALLDATASIZE SUB DUP2 ADD SWAP1 PUSH2 0x66 SWAP2 SWAP1 PUSH2 0x64D JUMP JUMPDEST PUSH2 0xF1 JUMP JUMPDEST PUSH1 0x40 MLOAD PUSH2 0x78 SWAP2 SWAP1 PUSH2 0x7F0 JUMP JUMPDEST PUSH1 0x40 MLOAD DUP1 SWAP2 SUB SWAP1 RETURN JUMPDEST PUSH2 0x9B PUSH1 0x4 DUP1 CALLDATASIZE SUB DUP2 ADD SWAP1 PUSH2 0x96 SWAP2 SWAP1 PUSH2 0x8CF JUMP JUMPDEST PUSH2 0x294 JUMP JUMPDEST STOP JUMPDEST PUSH2 0xB7 PUSH1 0x4 DUP1 CALLDATASIZE SUB DUP2 ADD SWAP1 PUSH2 0xB2 SWAP2 SWAP1 PUSH2 0x64D JUMP JUMPDEST PUSH2 0x44D JUMP JUMPDEST PUSH1 0x40 MLOAD PUSH2 0xCA SWAP8 SWAP7 SWAP6 SWAP5 SWAP4 SWAP3 SWAP2 SWAP1 PUSH2 0xA15 JUMP JUMPDEST PUSH1 0x40 MLOAD DUP1 SWAP2 SUB SWAP1 RETURN JUMPDEST PUSH2 0xDB PUSH2 0x5BC JUMP JUMPDEST PUSH1 0x40 MLOAD PUSH2 0xE8 SWAP2 SWAP1 PUSH2 0xA92 JUMP JUMPDEST PUSH1 0x40 MLOAD DUP1 SWAP2 SUB SWAP1 RETURN JUMPDEST PUSH2 0xF9 PUSH2 0x5C8 JUMP JUMPDEST PUSH1 0x0 DUP3 DUP2 SLOAD DUP2 LT PUSH2 0x10D JUMPI PUSH2 0x10C PUSH2 0xAAD JUMP JUMPDEST JUMPDEST SWAP1 PUSH1 0x0 MSTORE PUSH1 0x20 PUSH1 0x0 KECCAK256 SWAP1 PUSH1 0x7 MUL ADD PUSH1 0x40 MLOAD DUP1 PUSH1 0xE0 ADD PUSH1 0x40 MSTORE SWAP1 DUP2 PUSH1 0x0 DUP3 ADD DUP1 SLOAD PUSH2 0x136 SWAP1 PUSH2 0xB0B JUMP JUMPDEST DUP1 PUSH1 0x1F ADD PUSH1 0x20 DUP1 SWAP2 DIV MUL PUSH1 0x20 ADD PUSH1 0x40 MLOAD SWAP1 DUP2 ADD PUSH1 0x40 MSTORE DUP1 SWAP3 SWAP2 SWAP1 DUP2 DUP2 MSTORE PUSH1 0x20 ADD DUP3 DUP1 SLOAD PUSH2 0x162 SWAP1 PUSH2 0xB0B JUMP JUMPDEST DUP1 ISZERO PUSH2 0x1AF JUMPI DUP1 PUSH1 0x1F LT PUSH2 0x184 JUMPI PUSH2 0x100 DUP1 DUP4 SLOAD DIV MUL DUP4 MSTORE SWAP2 PUSH1 0x20 ADD SWAP2 PUSH2 0x1AF JUMP JUMPDEST DUP3 ADD SWAP2 SWAP1 PUSH1 0x0 MSTORE PUSH1 0x20 PUSH1 0x0 KECCAK256 SWAP1 JUMPDEST DUP2 SLOAD DUP2 MSTORE SWAP1 PUSH1 0x1 ADD SWAP1 PUSH1 0x20 ADD DUP1 DUP4 GT PUSH2 0x192 JUMPI DUP3 SWAP1 SUB PUSH1 0x1F AND DUP3 ADD SWAP2 JUMPDEST POP POP POP POP POP DUP2 MSTORE PUSH1 0x20 ADD PUSH1 0x1 DUP3 ADD DUP1 SLOAD PUSH2 0x1C8 SWAP1 PUSH2 0xB0B JUMP JUMPDEST DUP1 PUSH1 0x1F ADD PUSH1 0x20 DUP1 SWAP2 DIV MUL PUSH1 0x20 ADD PUSH1 0x40 MLOAD SWAP1 DUP2 ADD PUSH1 0x40 MSTORE DUP1 SWAP3 SWAP2 SWAP1 DUP2 DUP2 MSTORE PUSH1 0x20 ADD DUP3 DUP1 SLOAD PUSH2 0x1F4 SWAP1 PUSH2 0xB0B JUMP JUMPDEST DUP1 ISZERO PUSH2 0x241 JUMPI DUP1 PUSH1 0x1F LT PUSH2 0x216 JUMPI PUSH2 0x100 DUP1 DUP4 SLOAD DIV MUL DUP4 MSTORE SWAP2 PUSH1 0x20 ADD SWAP2 PUSH2 0x241 JUMP JUMPDEST DUP3 ADD SWAP2 SWAP1 PUSH1 0x0 MSTORE PUSH1 0x20 PUSH1 0x0 KECCAK256 SWAP1 JUMPDEST DUP2 SLOAD DUP2 MSTORE SWAP1 PUSH1 0x1 ADD SWAP1 PUSH1 0x20 ADD DUP1 DUP4 GT PUSH2 0x224 JUMPI DUP3 SWAP1 SUB PUSH1 0x1F AND DUP3 ADD SWAP2 JUMPDEST POP POP POP POP POP DUP2 MSTORE PUSH1 0x20 ADD PUSH1 0x2 DUP3 ADD SLOAD DUP2 MSTORE PUSH1 0x20 ADD PUSH1 0x3 DUP3 ADD SLOAD DUP2 MSTORE PUSH1 0x20 ADD PUSH1 0x4 DUP3 ADD SLOAD DUP2 MSTORE PUSH1 0x20 ADD PUSH1 0x5 DUP3 ADD PUSH1 0x0 SWAP1 SLOAD SWAP1 PUSH2 0x100 EXP SWAP1 DIV PUSH1 0xFF AND ISZERO ISZERO ISZERO ISZERO DUP2 MSTORE PUSH1 0x20 ADD PUSH1 0x6 DUP3 ADD SLOAD DUP2 MSTORE POP POP SWAP1 POP SWAP2 SWAP1 POP JUMP JUMPDEST PUSH1 0x0 PUSH1 0x40 MLOAD DUP1 PUSH1 0xE0 ADD PUSH1 0x40 MSTORE DUP1 DUP11 DUP11 DUP1 DUP1 PUSH1 0x1F ADD PUSH1 0x20 DUP1 SWAP2 DIV MUL PUSH1 0x20 ADD PUSH1 0x40 MLOAD SWAP1 DUP2 ADD PUSH1 0x40 MSTORE DUP1 SWAP4 SWAP3 SWAP2 SWAP1 DUP2 DUP2 MSTORE PUSH1 0x20 ADD DUP4 DUP4 DUP1 DUP3 DUP5 CALLDATACOPY PUSH1 0x0 DUP2 DUP5 ADD MSTORE PUSH1 0x1F NOT PUSH1 0x1F DUP3 ADD AND SWAP1 POP DUP1 DUP4 ADD SWAP3 POP POP POP POP POP POP POP DUP2 MSTORE PUSH1 0x20 ADD DUP9 DUP9 DUP1 DUP1 PUSH1 0x1F ADD PUSH1 0x20 DUP1 SWAP2 DIV MUL PUSH1 0x20 ADD PUSH1 0x40 MLOAD SWAP1 DUP2 ADD PUSH1 0x40 MSTORE DUP1 SWAP4 SWAP3 SWAP2 SWAP1 DUP2 DUP2 MSTORE PUSH1 0x20 ADD DUP4 DUP4 DUP1 DUP3 DUP5 CALLDATACOPY PUSH1 0x0 DUP2 DUP5 ADD MSTORE PUSH1 0x1F NOT PUSH1 0x1F DUP3 ADD AND SWAP1 POP DUP1 DUP4 ADD SWAP3 POP POP POP POP POP POP POP DUP2 MSTORE PUSH1 0x20 ADD DUP7 DUP2 MSTORE PUSH1 0x20 ADD DUP6 DUP2 MSTORE PUSH1 0x20 ADD DUP5 DUP2 MSTORE PUSH1 0x20 ADD DUP4 ISZERO ISZERO DUP2 MSTORE PUSH1 0x20 ADD TIMESTAMP DUP2 MSTORE POP SWAP1 DUP1 PUSH1 0x1 DUP2 SLOAD ADD DUP1 DUP3 SSTORE DUP1 SWAP2 POP POP PUSH1 0x1 SWAP1 SUB SWAP1 PUSH1 0x0 MSTORE PUSH1 0x20 PUSH1 0x0 KECCAK256 SWAP1 PUSH1 0x7 MUL ADD PUSH1 0x0 SWAP1 SWAP2 SWAP1 SWAP2 SWAP1 SWAP2 POP PUSH1 0x0 DUP3 ADD MLOAD DUP2 PUSH1 0x0 ADD SWAP1 DUP2 PUSH2 0x391 SWAP2 SWAP1 PUSH2 0xD17 JUMP JUMPDEST POP PUSH1 0x20 DUP3 ADD MLOAD DUP2 PUSH1 0x1 ADD SWAP1 DUP2 PUSH2 0x3A7 SWAP2 SWAP1 PUSH2 0xD17 JUMP JUMPDEST POP PUSH1 0x40 DUP3 ADD MLOAD DUP2 PUSH1 0x2 ADD SSTORE PUSH1 0x60 DUP3 ADD MLOAD DUP2 PUSH1 0x3 ADD SSTORE PUSH1 0x80 DUP3 ADD MLOAD DUP2 PUSH1 0x4 ADD SSTORE PUSH1 0xA0 DUP3 ADD MLOAD DUP2 PUSH1 0x5 ADD PUSH1 0x0 PUSH2 0x100 EXP DUP2 SLOAD DUP2 PUSH1 0xFF MUL NOT AND SWAP1 DUP4 ISZERO ISZERO MUL OR SWAP1 SSTORE POP PUSH1 0xC0 DUP3 ADD MLOAD DUP2 PUSH1 0x6 ADD SSTORE POP POP PUSH1 0x1 PUSH1 0x0 DUP1 SLOAD SWAP1 POP PUSH2 0x404 SWAP2 SWAP1 PUSH2 0xE18 JUMP JUMPDEST PUSH32 0x4B14F7B51175AF862CCEA1E0D2BBF9453254299ACB7E3B4C140BA6C6DD983AA7 DUP10 DUP10 DUP10 DUP10 DUP7 PUSH1 0x40 MLOAD PUSH2 0x43B SWAP6 SWAP5 SWAP4 SWAP3 SWAP2 SWAP1 PUSH2 0xE88 JUMP JUMPDEST PUSH1 0x40 MLOAD DUP1 SWAP2 SUB SWAP1 LOG2 POP POP POP POP POP POP POP POP JUMP JUMPDEST PUSH1 0x0 DUP2 DUP2 SLOAD DUP2 LT PUSH2 0x45D JUMPI PUSH1 0x0 DUP1 REVERT JUMPDEST SWAP1 PUSH1 0x0 MSTORE PUSH1 0x20 PUSH1 0x0 KECCAK256 SWAP1 PUSH1 0x7 MUL ADD PUSH1 0x0 SWAP2 POP SWAP1 POP DUP1 PUSH1 0x0 ADD DUP1 SLOAD PUSH2 0x480 SWAP1 PUSH2 0xB0B JUMP JUMPDEST DUP1 PUSH1 0x1F ADD PUSH1 0x20 DUP1 SWAP2 DIV MUL PUSH1 0x20 ADD PUSH1 0x40 MLOAD SWAP1 DUP2 ADD PUSH1 0x40 MSTORE DUP1 SWAP3 SWAP2 SWAP1 DUP2 DUP2 MSTORE PUSH1 0x20 ADD DUP3 DUP1 SLOAD PUSH2 0x4AC SWAP1 PUSH2 0xB0B JUMP JUMPDEST DUP1 ISZERO PUSH2 0x4F9 JUMPI DUP1 PUSH1 0x1F LT PUSH2 0x4CE JUMPI PUSH2 0x100 DUP1 DUP4 SLOAD DIV MUL DUP4 MSTORE SWAP2 PUSH1 0x20 ADD SWAP2 PUSH2 0x4F9 JUMP JUMPDEST DUP3 ADD SWAP2 SWAP1 PUSH1 0x0 MSTORE PUSH1 0x20 PUSH1 0x0 KECCAK256 SWAP1 JUMPDEST DUP2 SLOAD DUP2 MSTORE SWAP1 PUSH1 0x1 ADD SWAP1 PUSH1 0x20 ADD DUP1 DUP4 GT PUSH2 0x4DC JUMPI DUP3 SWAP1 SUB PUSH1 0x1F AND DUP3 ADD SWAP2 JUMPDEST POP POP POP POP POP SWAP1 DUP1 PUSH1 0x1 ADD DUP1 SLOAD PUSH2 0x50E SWAP1 PUSH2 0xB0B JUMP JUMPDEST DUP1 PUSH1 0x1F ADD PUSH1 0x20 DUP1 SWAP2 DIV MUL PUSH1 0x20 ADD PUSH1 0x40 MLOAD SWAP1 DUP2 ADD PUSH1 0x40 MSTORE DUP1 SWAP3 SWAP2 SWAP1 DUP2 DUP2 MSTORE PUSH1 0x20 ADD DUP3 DUP1 SLOAD PUSH2 0x53A SWAP1 PUSH2 0xB0B JUMP JUMPDEST DUP1 ISZERO PUSH2 0x587 JUMPI DUP1 PUSH1 0x1F LT PUSH2 0x55C JUMPI PUSH2 0x100 DUP1 DUP4 SLOAD DIV MUL DUP4 MSTORE SWAP2 PUSH1 0x20 ADD SWAP2 PUSH2 0x587 JUMP JUMPDEST DUP3 ADD SWAP2 SWAP1 PUSH1 0x0 MSTORE PUSH1 0x20 PUSH1 0x0 KECCAK256 SWAP1 JUMPDEST DUP2 SLOAD DUP2 MSTORE SWAP1 PUSH1 0x1 ADD SWAP1 PUSH1 0x20 ADD DUP1 DUP4 GT PUSH2 0x56A JUMPI DUP3 SWAP1 SUB PUSH1 0x1F AND DUP3 ADD SWAP2 JUMPDEST POP POP POP POP POP SWAP1 DUP1 PUSH1 0x2 ADD SLOAD SWAP1 DUP1 PUSH1 0x3 ADD SLOAD SWAP1 DUP1 PUSH1 0x4 ADD SLOAD SWAP1 DUP1 PUSH1 0x5 ADD PUSH1 0x0 SWAP1 SLOAD SWAP1 PUSH2 0x100 EXP SWAP1 DIV PUSH1 0xFF AND SWAP1 DUP1 PUSH1 0x6 ADD SLOAD SWAP1 POP DUP8 JUMP JUMPDEST PUSH1 0x0 DUP1 DUP1 SLOAD SWAP1 POP SWAP1 POP SWAP1 JUMP JUMPDEST PUSH1 0x40 MLOAD DUP1 PUSH1 0xE0 ADD PUSH1 0x40 MSTORE DUP1 PUSH1 0x60 DUP2 MSTORE PUSH1 0x20 ADD PUSH1 0x60 DUP2 MSTORE PUSH1 0x20 ADD PUSH1 0x0 DUP1 NOT AND DUP2 MSTORE PUSH1 0x20 ADD PUSH1 0x0 DUP1 NOT AND DUP2 MSTORE PUSH1 0x20 ADD PUSH1 0x0 DUP2 MSTORE PUSH1 0x20 ADD PUSH1 0x0 ISZERO ISZERO DUP2 MSTORE PUSH1 0x20 ADD PUSH1 0x0 DUP2 MSTORE POP SWAP1 JUMP JUMPDEST PUSH1 0x0 DUP1 REVERT JUMPDEST PUSH1 0x0 DUP1 REVERT JUMPDEST PUSH1 0x0 DUP2 SWAP1 POP SWAP2 SWAP1 POP JUMP JUMPDEST PUSH2 0x62A DUP2 PUSH2 0x617 JUMP JUMPDEST DUP2 EQ PUSH2 0x635 JUMPI PUSH1 0x0 DUP1 REVERT JUMPDEST POP JUMP JUMPDEST PUSH1 0x0 DUP2 CALLDATALOAD SWAP1 POP PUSH2 0x647 DUP2 PUSH2 0x621 JUMP JUMPDEST SWAP3 SWAP2 POP POP JUMP JUMPDEST PUSH1 0x0 PUSH1 0x20 DUP3 DUP5 SUB SLT ISZERO PUSH2 0x663 JUMPI PUSH2 0x662 PUSH2 0x60D JUMP JUMPDEST JUMPDEST PUSH1 0x0 PUSH2 0x671 DUP5 DUP3 DUP6 ADD PUSH2 0x638 JUMP JUMPDEST SWAP2 POP POP SWAP3 SWAP2 POP POP JUMP JUMPDEST PUSH1 0x0 DUP2 MLOAD SWAP1 POP SWAP2 SWAP1 POP JUMP JUMPDEST PUSH1 0x0 DUP3 DUP3 MSTORE PUSH1 0x20 DUP3 ADD SWAP1 POP SWAP3 SWAP2 POP POP JUMP JUMPDEST PUSH1 0x0 JUMPDEST DUP4 DUP2 LT ISZERO PUSH2 0x6B4 JUMPI DUP1 DUP3 ADD MLOAD DUP2 DUP5 ADD MSTORE PUSH1 0x20 DUP2 ADD SWAP1 POP PUSH2 0x699 JUMP JUMPDEST PUSH1 0x0 DUP5 DUP5 ADD MSTORE POP POP POP POP JUMP JUMPDEST PUSH1 0x0 PUSH1 0x1F NOT PUSH1 0x1F DUP4 ADD AND SWAP1 POP SWAP2 SWAP1 POP JUMP JUMPDEST PUSH1 0x0 PUSH2 0x6DC DUP3 PUSH2 0x67A JUMP JUMPDEST PUSH2 0x6E6 DUP2 DUP6 PUSH2 0x685 JUMP JUMPDEST SWAP4 POP PUSH2 0x6F6 DUP2 DUP6 PUSH1 0x20 DUP7 ADD PUSH2 0x696 JUMP JUMPDEST PUSH2 0x6FF DUP2 PUSH2 0x6C0 JUMP JUMPDEST DUP5 ADD SWAP2 POP POP SWAP3 SWAP2 POP POP JUMP JUMPDEST PUSH1 0x0 DUP2 SWAP1 POP SWAP2 SWAP1 POP JUMP JUMPDEST PUSH2 0x71D DUP2 PUSH2 0x70A JUMP JUMPDEST DUP3 MSTORE POP POP JUMP JUMPDEST PUSH2 0x72C DUP2 PUSH2 0x617 JUMP JUMPDEST DUP3 MSTORE POP POP JUMP JUMPDEST PUSH1 0x0 DUP2 ISZERO ISZERO SWAP1 POP SWAP2 SWAP1 POP JUMP JUMPDEST PUSH2 0x747 DUP2 PUSH2 0x732 JUMP JUMPDEST DUP3 MSTORE POP POP JUMP JUMPDEST PUSH1 0x0 PUSH1 0xE0 DUP4 ADD PUSH1 0x0 DUP4 ADD MLOAD DUP5 DUP3 SUB PUSH1 0x0 DUP7 ADD MSTORE PUSH2 0x76A DUP3 DUP3 PUSH2 0x6D1 JUMP JUMPDEST SWAP2 POP POP PUSH1 0x20 DUP4 ADD MLOAD DUP5 DUP3 SUB PUSH1 0x20 DUP7 ADD MSTORE PUSH2 0x784 DUP3 DUP3 PUSH2 0x6D1 JUMP JUMPDEST SWAP2 POP POP PUSH1 0x40 DUP4 ADD MLOAD PUSH2 0x799 PUSH1 0x40 DUP7 ADD DUP3 PUSH2 0x714 JUMP JUMPDEST POP PUSH1 0x60 DUP4 ADD MLOAD PUSH2 0x7AC PUSH1 0x60 DUP7 ADD DUP3 PUSH2 0x714 JUMP JUMPDEST POP PUSH1 0x80 DUP4 ADD MLOAD PUSH2 0x7BF PUSH1 0x80 DUP7 ADD DUP3 PUSH2 0x723 JUMP JUMPDEST POP PUSH1 0xA0 DUP4 ADD MLOAD PUSH2 0x7D2 PUSH1 0xA0 DUP7 ADD DUP3 PUSH2 0x73E JUMP JUMPDEST POP PUSH1 0xC0 DUP4 ADD MLOAD PUSH2 0x7E5 PUSH1 0xC0 DUP7 ADD DUP3 PUSH2 0x723 JUMP JUMPDEST POP DUP1 SWAP2 POP POP SWAP3 SWAP2 POP POP JUMP JUMPDEST PUSH1 0x0 PUSH1 0x20 DUP3 ADD SWAP1 POP DUP2 DUP2 SUB PUSH1 0x0 DUP4 ADD MSTORE PUSH2 0x80A DUP2 DUP5 PUSH2 0x74D JUMP JUMPDEST SWAP1 POP SWAP3 SWAP2 POP POP JUMP JUMPDEST PUSH1 0x0 DUP1 REVERT JUMPDEST PUSH1 0x0 DUP1 REVERT JUMPDEST PUSH1 0x0 DUP1 REVERT JUMPDEST PUSH1 0x0 DUP1 DUP4 PUSH1 0x1F DUP5 ADD SLT PUSH2 0x837 JUMPI PUSH2 0x836 PUSH2 0x812 JUMP JUMPDEST JUMPDEST DUP3 CALLDATALOAD SWAP1 POP PUSH8 0xFFFFFFFFFFFFFFFF DUP2 GT ISZERO PUSH2 0x854 JUMPI PUSH2 0x853 PUSH2 0x817 JUMP JUMPDEST JUMPDEST PUSH1 0x20 DUP4 ADD SWAP2 POP DUP4 PUSH1 0x1 DUP3 MUL DUP4 ADD GT ISZERO PUSH2 0x870 JUMPI PUSH2 0x86F PUSH2 0x81C JUMP JUMPDEST JUMPDEST SWAP3 POP SWAP3 SWAP1 POP JUMP JUMPDEST PUSH2 0x880 DUP2 PUSH2 0x70A JUMP JUMPDEST DUP2 EQ PUSH2 0x88B JUMPI PUSH1 0x0 DUP1 REVERT JUMPDEST POP JUMP JUMPDEST PUSH1 0x0 DUP2 CALLDATALOAD SWAP1 POP PUSH2 0x89D DUP2 PUSH2 0x877 JUMP JUMPDEST SWAP3 SWAP2 POP POP JUMP JUMPDEST PUSH2 0x8AC DUP2 PUSH2 0x732 JUMP JUMPDEST DUP2 EQ PUSH2 0x8B7 JUMPI PUSH1 0x0 DUP1 REVERT JUMPDEST POP JUMP JUMPDEST PUSH1 0x0 DUP2 CALLDATALOAD SWAP1 POP PUSH2 0x8C9 DUP2 PUSH2 0x8A3 JUMP JUMPDEST SWAP3 SWAP2 POP POP JUMP JUMPDEST PUSH1 0x0 DUP1 PUSH1 0x0 DUP1 PUSH1 0x0 DUP1 PUSH1 0x0 DUP1 PUSH1 0xC0 DUP10 DUP12 SUB SLT ISZERO PUSH2 0x8EF JUMPI PUSH2 0x8EE PUSH2 0x60D JUMP JUMPDEST JUMPDEST PUSH1 0x0 DUP10 ADD CALLDATALOAD PUSH8 0xFFFFFFFFFFFFFFFF DUP2 GT ISZERO PUSH2 0x90D JUMPI PUSH2 0x90C PUSH2 0x612 JUMP JUMPDEST JUMPDEST PUSH2 0x919 DUP12 DUP3 DUP13 ADD PUSH2 0x821 JUMP JUMPDEST SWAP9 POP SWAP9 POP POP PUSH1 0x20 DUP10 ADD CALLDATALOAD PUSH8 0xFFFFFFFFFFFFFFFF DUP2 GT ISZERO PUSH2 0x93C JUMPI PUSH2 0x93B PUSH2 0x612 JUMP JUMPDEST JUMPDEST PUSH2 0x948 DUP12 DUP3 DUP13 ADD PUSH2 0x821 JUMP JUMPDEST SWAP7 POP SWAP7 POP POP PUSH1 0x40 PUSH2 0x95B DUP12 DUP3 DUP13 ADD PUSH2 0x88E JUMP JUMPDEST SWAP5 POP POP PUSH1 0x60 PUSH2 0x96C DUP12 DUP3 DUP13 ADD PUSH2 0x88E JUMP JUMPDEST SWAP4 POP POP PUSH1 0x80 PUSH2 0x97D DUP12 DUP3 DUP13 ADD PUSH2 0x638 JUMP JUMPDEST SWAP3 POP POP PUSH1 0xA0 PUSH2 0x98E DUP12 DUP3 DUP13 ADD PUSH2 0x8BA JUMP JUMPDEST SWAP2 POP POP SWAP3 SWAP6 SWAP9 POP SWAP3 SWAP6 SWAP9 SWAP1 SWAP4 SWAP7 POP JUMP JUMPDEST PUSH1 0x0 DUP3 DUP3 MSTORE PUSH1 0x20 DUP3 ADD SWAP1 POP SWAP3 SWAP2 POP POP JUMP JUMPDEST PUSH1 0x0 PUSH2 0x9BA DUP3 PUSH2 0x67A JUMP JUMPDEST PUSH2 0x9C4 DUP2 DUP6 PUSH2 0x99E JUMP JUMPDEST SWAP4 POP PUSH2 0x9D4 DUP2 DUP6 PUSH1 0x20 DUP7 ADD PUSH2 0x696 JUMP JUMPDEST PUSH2 0x9DD DUP2 PUSH2 0x6C0 JUMP JUMPDEST DUP5 ADD SWAP2 POP POP SWAP3 SWAP2 POP POP JUMP JUMPDEST PUSH2 0x9F1 DUP2 PUSH2 0x70A JUMP JUMPDEST DUP3 MSTORE POP POP JUMP JUMPDEST PUSH2 0xA00 DUP2 PUSH2 0x617 JUMP JUMPDEST DUP3 MSTORE POP POP JUMP JUMPDEST PUSH2 0xA0F DUP2 PUSH2 0x732 JUMP JUMPDEST DUP3 MSTORE POP POP JUMP JUMPDEST PUSH1 0x0 PUSH1 0xE0 DUP3 ADD SWAP1 POP DUP2 DUP2 SUB PUSH1 0x0 DUP4 ADD MSTORE PUSH2 0xA2F DUP2 DUP11 PUSH2 0x9AF JUMP JUMPDEST SWAP1 POP DUP2 DUP2 SUB PUSH1 0x20 DUP4 ADD MSTORE PUSH2 0xA43 DUP2 DUP10 PUSH2 0x9AF JUMP JUMPDEST SWAP1 POP PUSH2 0xA52 PUSH1 0x40 DUP4 ADD DUP9 PUSH2 0x9E8 JUMP JUMPDEST PUSH2 0xA5F PUSH1 0x60 DUP4 ADD DUP8 PUSH2 0x9E8 JUMP JUMPDEST PUSH2 0xA6C PUSH1 0x80 DUP4 ADD DUP7 PUSH2 0x9F7 JUMP JUMPDEST PUSH2 0xA79 PUSH1 0xA0 DUP4 ADD DUP6 PUSH2 0xA06 JUMP JUMPDEST PUSH2 0xA86 PUSH1 0xC0 DUP4 ADD DUP5 PUSH2 0x9F7 JUMP JUMPDEST SWAP9 SWAP8 POP POP POP POP POP POP POP POP JUMP JUMPDEST PUSH1 0x0 PUSH1 0x20 DUP3 ADD SWAP1 POP PUSH2 0xAA7 PUSH1 0x0 DUP4 ADD DUP5 PUSH2 0x9F7 JUMP JUMPDEST SWAP3 SWAP2 POP POP JUMP JUMPDEST PUSH32 0x4E487B7100000000000000000000000000000000000000000000000000000000 PUSH1 0x0 MSTORE PUSH1 0x32 PUSH1 0x4 MSTORE PUSH1 0x24 PUSH1 0x0 REVERT JUMPDEST PUSH32 0x4E487B7100000000000000000000000000000000000000000000000000000000 PUSH1 0x0 MSTORE PUSH1 0x22 PUSH1 0x4 MSTORE PUSH1 0x24 PUSH1 0x0 REVERT JUMPDEST PUSH1 0x0 PUSH1 0x2 DUP3 DIV SWAP1 POP PUSH1 0x1 DUP3 AND DUP1 PUSH2 0xB23 JUMPI PUSH1 0x7F DUP3 AND SWAP2 POP JUMPDEST PUSH1 0x20 DUP3 LT DUP2 SUB PUSH2 0xB36 JUMPI PUSH2 0xB35 PUSH2 0xADC JUMP JUMPDEST JUMPDEST POP SWAP2 SWAP1 POP JUMP JUMPDEST PUSH32 0x4E487B7100000000000000000000000000000000000000000000000000000000 PUSH1 0x0 MSTORE PUSH1 0x41 PUSH1 0x4 MSTORE PUSH1 0x24 PUSH1 0x0 REVERT JUMPDEST PUSH1 0x0 DUP2 SWAP1 POP DUP2 PUSH1 0x0 MSTORE PUSH1 0x20 PUSH1 0x0 KECCAK256 SWAP1 POP SWAP2 SWAP1 POP JUMP JUMPDEST PUSH1 0x0 PUSH1 0x20 PUSH1 0x1F DUP4 ADD DIV SWAP1 POP SWAP2 SWAP1 POP JUMP JUMPDEST PUSH1 0x0 DUP3 DUP3 SHL SWAP1 POP SWAP3 SWAP2 POP POP JUMP JUMPDEST PUSH1 0x0 PUSH1 0x8 DUP4 MUL PUSH2 0xBCD PUSH32 0xFFFFFFFFFFFFFFFFFFFFFFFFFFFFFFFFFFFFFFFFFFFFFFFFFFFFFFFFFFFFFFFF DUP3 PUSH2 0xB90 JUMP JUMPDEST PUSH2 0xBD7 DUP7 DUP4 PUSH2 0xB90 JUMP JUMPDEST SWAP6 POP DUP1 NOT DUP5 AND SWAP4 POP DUP1 DUP7 AND DUP5 OR SWAP3 POP POP POP SWAP4 SWAP3 POP POP POP JUMP JUMPDEST PUSH1 0x0 DUP2 SWAP1 POP SWAP2 SWAP1 POP JUMP JUMPDEST PUSH1 0x0 PUSH2 0xC14 PUSH2 0xC0F PUSH2 0xC0A DUP5 PUSH2 0x617 JUMP JUMPDEST PUSH2 0xBEF JUMP JUMPDEST PUSH2 0x617 JUMP JUMPDEST SWAP1 POP SWAP2 SWAP1 POP JUMP JUMPDEST PUSH1 0x0 DUP2 SWAP1 POP SWAP2 SWAP1 POP JUMP JUMPDEST PUSH2 0xC2E DUP4 PUSH2 0xBF9 JUMP JUMPDEST PUSH2 0xC42 PUSH2 0xC3A DUP3 PUSH2 0xC1B JUMP JUMPDEST DUP5 DUP5 SLOAD PUSH2 0xB9D JUMP JUMPDEST DUP3 SSTORE POP POP POP POP JUMP JUMPDEST PUSH1 0x0 SWAP1 JUMP JUMPDEST PUSH2 0xC57 PUSH2 0xC4A JUMP JUMPDEST PUSH2 0xC62 DUP2 DUP5 DUP5 PUSH2 0xC25 JUMP JUMPDEST POP POP POP JUMP JUMPDEST JUMPDEST DUP2 DUP2 LT ISZERO PUSH2 0xC86 JUMPI PUSH2 0xC7B PUSH1 0x0 DUP3 PUSH2 0xC4F JUMP JUMPDEST PUSH1 0x1 DUP2 ADD SWAP1 POP PUSH2 0xC68 JUMP JUMPDEST POP POP JUMP JUMPDEST PUSH1 0x1F DUP3 GT ISZERO PUSH2 0xCCB JUMPI PUSH2 0xC9C DUP2 PUSH2 0xB6B JUMP JUMPDEST PUSH2 0xCA5 DUP5 PUSH2 0xB80 JUMP JUMPDEST DUP2 ADD PUSH1 0x20 DUP6 LT ISZERO PUSH2 0xCB4 JUMPI DUP2 SWAP1 POP JUMPDEST PUSH2 0xCC8 PUSH2 0xCC0 DUP6 PUSH2 0xB80 JUMP JUMPDEST DUP4 ADD DUP3 PUSH2 0xC67 JUMP JUMPDEST POP POP JUMPDEST POP POP POP JUMP JUMPDEST PUSH1 0x0 DUP3 DUP3 SHR SWAP1 POP SWAP3 SWAP2 POP POP JUMP JUMPDEST PUSH1 0x0 PUSH2 0xCEE PUSH1 0x0 NOT DUP5 PUSH1 0x8 MUL PUSH2 0xCD0 JUMP JUMPDEST NOT DUP1 DUP4 AND SWAP2 POP POP SWAP3 SWAP2 POP POP JUMP JUMPDEST PUSH1 0x0 PUSH2 0xD07 DUP4 DUP4 PUSH2 0xCDD JUMP JUMPDEST SWAP2 POP DUP3 PUSH1 0x2 MUL DUP3 OR SWAP1 POP SWAP3 SWAP2 POP POP JUMP JUMPDEST PUSH2 0xD20 DUP3 PUSH2 0x67A JUMP JUMPDEST PUSH8 0xFFFFFFFFFFFFFFFF DUP2 GT ISZERO PUSH2 0xD39 JUMPI PUSH2 0xD38 PUSH2 0xB3C JUMP JUMPDEST JUMPDEST PUSH2 0xD43 DUP3 SLOAD PUSH2 0xB0B JUMP JUMPDEST PUSH2 0xD4E DUP3 DUP3 DUP6 PUSH2 0xC8A JUMP JUMPDEST PUSH1 0x0 PUSH1 0x20 SWAP1 POP PUSH1 0x1F DUP4 GT PUSH1 0x1 DUP2 EQ PUSH2 0xD81 JUMPI PUSH1 0x0 DUP5 ISZERO PUSH2 0xD6F JUMPI DUP3 DUP8 ADD MLOAD SWAP1 POP JUMPDEST PUSH2 0xD79 DUP6 DUP3 PUSH2 0xCFB JUMP JUMPDEST DUP7 SSTORE POP PUSH2 0xDE1 JUMP JUMPDEST PUSH1 0x1F NOT DUP5 AND PUSH2 0xD8F DUP7 PUSH2 0xB6B JUMP JUMPDEST PUSH1 0x0 JUMPDEST DUP3 DUP2 LT ISZERO PUSH2 0xDB7 JUMPI DUP5 DUP10 ADD MLOAD DUP3 SSTORE PUSH1 0x1 DUP3 ADD SWAP2 POP PUSH1 0x20 DUP6 ADD SWAP5 POP PUSH1 0x20 DUP2 ADD SWAP1 POP PUSH2 0xD92 JUMP JUMPDEST DUP7 DUP4 LT ISZERO PUSH2 0xDD4 JUMPI DUP5 DUP10 ADD MLOAD PUSH2 0xDD0 PUSH1 0x1F DUP10 AND DUP3 PUSH2 0xCDD JUMP JUMPDEST DUP4 SSTORE POP JUMPDEST PUSH1 0x1 PUSH1 0x2 DUP9 MUL ADD DUP9 SSTORE POP POP POP JUMPDEST POP POP POP POP POP POP JUMP JUMPDEST PUSH32 0x4E487B7100000000000000000000000000000000000000000000000000000000 PUSH1 0x0 MSTORE PUSH1 0x11 PUSH1 0x4 MSTORE PUSH1 0x24 PUSH1 0x0 REVERT JUMPDEST PUSH1 0x0 PUSH2 0xE23 DUP3 PUSH2 0x617 JUMP JUMPDEST SWAP2 POP PUSH2 0xE2E DUP4 PUSH2 0x617 JUMP JUMPDEST SWAP3 POP DUP3 DUP3 SUB SWAP1 POP DUP2 DUP2 GT ISZERO PUSH2 0xE46 JUMPI PUSH2 0xE45 PUSH2 0xDE9 JUMP JUMPDEST JUMPDEST SWAP3 SWAP2 POP POP JUMP JUMPDEST DUP3 DUP2 DUP4 CALLDATACOPY PUSH1 0x0 DUP4 DUP4 ADD MSTORE POP POP POP JUMP JUMPDEST PUSH1 0x0 PUSH2 0xE67 DUP4 DUP6 PUSH2 0x99E JUMP JUMPDEST SWAP4 POP PUSH2 0xE74 DUP4 DUP6 DUP5 PUSH2 0xE4C JUMP JUMPDEST PUSH2 0xE7D DUP4 PUSH2 0x6C0 JUMP JUMPDEST DUP5 ADD SWAP1 POP SWAP4 SWAP3 POP POP POP JUMP JUMPDEST PUSH1 0x0 PUSH1 0x60 DUP3 ADD SWAP1 POP DUP2 DUP2 SUB PUSH1 0x0 DUP4 ADD MSTORE PUSH2 0xEA3 DUP2 DUP8 DUP10 PUSH2 0xE5B JUMP JUMPDEST SWAP1 POP DUP2 DUP2 SUB PUSH1 0x20 DUP4 ADD MSTORE PUSH2 0xEB8 DUP2 DUP6 DUP8 PUSH2 0xE5B JUMP JUMPDEST SWAP1 POP PUSH2 0xEC7 PUSH1 0x40 DUP4 ADD DUP5 PUSH2 0xA06 JUMP JUMPDEST SWAP7 SWAP6 POP POP POP POP POP POP JUMP INVALID LOG2 PUSH5 0x6970667358 0x22 SLT KECCAK256 PUSH9 0xFC9A89C56D44AEC669 PUSH7 0x284A2E5F7E8912 EXTCODEHASH ADDMOD SWAP3 SWAP4 0xD1 0xDF DUP14 0xD3 0xDD PUSH13 0x6B4CFE8864736F6C6343000814 STOP CALLER "},"methodIdentifiers":{"addLog(string,string,bytes32,bytes32,uint256,bool)":"8fd17aa4","entries(uint256)":"b30906d4","getLog(uint256)":"3206b2c6","totalLogs()":"e4ce0662"}}}}}