{"contracts/AccessControl.sol":{"AccessControl":{"abi":[{"inputs":[{"internalType":"address","name":"registryAddr","type":"address"}],"stateMutability":"nonpayable","type":"constructor"},{"anonymous":false,"inputs":[{"indexed":false,"internalType":"string","name":"sender","type":"string"},{"indexed":false,"internalType":"string","name":"receiver","type":"string"},{"indexed":false,"internalType":"string","name":"reason","type":"string"}],"name":"AccessDenied","type":"event"},{"anonymous":false,"inputs":[{"indexed":false,"internalType":"string","name":"sender","type":"string"},{"indexed":false,"internalType":"string","name":"receiver","type":"string"},{"indexed":false,"internalType":"uint256","name":"timestamp","type":"uint256"}],"name":"AccessGranted","type":"event"},{"inputs":[{"internalType":"string","name":"senderId","type":"string"},{"internalType":"string","name":"receiverId","type":"string"}],"name":"checkAccess","outputs":[{"internalType":"bool","name":"","type":"bool"}],"stateMutability":"nonpayable","type":"function"},{"inputs":[],"name":"registry","outputs":[{"internalType":"contract DeviceRegistry","name":"","type":"address"}],"stateMutability":"view","type":"function"}],"evm":{"bytecode":{"linkReferences":{},"object":"608060405234801561001057600080fd5b50604051610b5e380380610b5e833981810160405281019061003291906100db565b806000806101000a81548173ffffffffffffffffffffffffffffffffffffffff021916908373ffffffffffffffffffffffffffffffffffffffff16021790555050610108565b600080fd5b600073ffffffffffffffffffffffffffffffffffffffff82169050919050565b60006100a88261007d565b9050919050565b6100b88161009d565b81146100c357600080fd5b50565b6000815190506100d5816100af565b92915050565b6000602082840312156100f1576100f0610078565b5b60006100ff848285016100c6565b91505092915050565b610a47806101176000396000f3fe608060405234801561001057600080fd5b50600436106100365760003560e01c80637b1039991461003b5780639f719dd814610059575b600080fd5b610043610089565b6040516100509190610452565b60405180910390f35b610073600480360381019061006e91906104e6565b6100ad565b6040516100809190610582565b60405180910390f35b60008054906101000a900473ffffffffffffffffffffffffffffffffffffffff1681565b60008060008060009054906101000a900473ffffffffffffffffffffffffffffffffffffffff1673ffffffffffffffffffffffffffffffffffffffff1663b71a034688886040518363ffffffff1660e01b815260040161010e9291906105fb565b600060405180830381865afa15801561012b573d6000803e3d6000fd5b505050506040513d6000823e3d601f19601f820116820180604052508101906101549190610802565b50925092505060008060008054906101000a900473ffffffffffffffffffffffffffffffffffffffff1673ffffffffffffffffffffffffffffffffffffffff1663b71a034688886040518363ffffffff1660e01b81526004016101b89291906105fb565b600060405180830381865afa1580156101d5573d6000803e3d6000fd5b505050506040513d6000823e3d601f19601f820116820180604052508101906101fe9190610802565b50925092505082158061020f575080155b1561025e577f401e06d1c67109a0d6b4517a119ee809dfb1ed46a93bc098aef4e05106f8d4118989898960405161024994939291906108d1565b60405180910390a160009450505050506102fd565b600061026a8584610305565b905080156102b6577f782f1aed3ab0ec05a4acfc688a38588753c1da1ff5db0a13f800dbd59eb234fe8a8a8a8a426040516102a995949392919061092e565b60405180910390a16102f4565b7f401e06d1c67109a0d6b4517a119ee809dfb1ed46a93bc098aef4e05106f8d4118a8a8a8a6040516102eb94939291906109c3565b60405180910390a15b80955050505050505b949350505050565b6000808380519060200120905060008380519060200120905060007ff23ec0bb4210edd5cba85afd05127efcd2fc6a781bfed49188da1081670b22d8905060007fec03945fa2196716a09674e2cd6a57153479ecb05ea91e189e2688f793ab5381905060007f7a749b48408530f1fd2d5f006c4ce6784659e92480e0abb9bd153845467046a890508285036103a2576001955050505050506103cd565b8185036103c257818414806103b657508084145b955050505050506103cd565b838514955050505050505b92915050565b600073ffffffffffffffffffffffffffffffffffffffff82169050919050565b6000819050919050565b600061041861041361040e846103d3565b6103f3565b6103d3565b9050919050565b600061042a826103fd565b9050919050565b600061043c8261041f565b9050919050565b61044c81610431565b82525050565b60006020820190506104676000830184610443565b92915050565b6000604051905090565b600080fd5b600080fd5b600080fd5b600080fd5b600080fd5b60008083601f8401126104a6576104a5610481565b5b8235905067ffffffffffffffff8111156104c3576104c2610486565b5b6020830191508360018202830111156104df576104de61048b565b5b9250929050565b60008060008060408587031215610500576104ff610477565b5b600085013567ffffffffffffffff81111561051e5761051d61047c565b5b61052a87828801610490565b9450945050602085013567ffffffffffffffff81111561054d5761054c61047c565b5b61055987828801610490565b925092505092959194509250565b60008115159050919050565b61057c81610567565b82525050565b60006020820190506105976000830184610573565b92915050565b600082825260208201905092915050565b82818337600083830152505050565b6000601f19601f8301169050919050565b60006105da838561059d565b93506105e78385846105ae565b6105f0836105bd565b840190509392505050565b600060208201905081810360008301526106168184866105ce565b90509392505050565b6000819050919050565b6106328161061f565b811461063d57600080fd5b50565b60008151905061064f81610629565b92915050565b600080fd5b7f4e487b7100000000000000000000000000000000000000000000000000000000600052604160045260246000fd5b610692826105bd565b810181811067ffffffffffffffff821117156106b1576106b061065a565b5b80604052505050565b60006106c461046d565b90506106d08282610689565b919050565b600067ffffffffffffffff8211156106f0576106ef61065a565b5b6106f9826105bd565b9050602081019050919050565b60005b83811015610724578082015181840152602081019050610709565b60008484015250505050565b600061074361073e846106d5565b6106ba565b90508281526020810184848401111561075f5761075e610655565b5b61076a848285610706565b509392505050565b600082601f83011261078757610786610481565b5b8151610797848260208601610730565b91505092915050565b6107a981610567565b81146107b457600080fd5b50565b6000815190506107c6816107a0565b92915050565b6000819050919050565b6107df816107cc565b81146107ea57600080fd5b50565b6000815190506107fc816107d6565b92915050565b6000806000806080858703121561081c5761081b610477565b5b600061082a87828801610640565b945050602085015167ffffffffffffffff81111561084b5761084a61047c565b5b61085787828801610772565b9350506040610868878288016107b7565b9250506060610879878288016107ed565b91505092959194509250565b7f446576696365206e6f7420726567697374657265640000000000000000000000600082015250565b60006108bb60158361059d565b91506108c682610885565b602082019050919050565b600060608201905081810360008301526108ec8186886105ce565b905081810360208301526109018184866105ce565b90508181036040830152610914816108ae565b905095945050505050565b610928816107cc565b82525050565b600060608201905081810360008301526109498187896105ce565b9050818103602083015261095e8185876105ce565b905061096d604083018461091f565b9695505050505050565b7f526f6c65206e6f7420617574686f72697a656400000000000000000000000000600082015250565b60006109ad60138361059d565b91506109b882610977565b602082019050919050565b600060608201905081810360008301526109de8186886105ce565b905081810360208301526109f38184866105ce565b90508181036040830152610a06816109a0565b90509594505050505056fea2646970667358221220a3b19d4baa54eb947d40e193b3621479e845dd4850b0c722331a62e72e6dd04464736f6c63430008140033","opcodes":"PUSH1 0x80 PUSH1 0x40 MSTORE CALLVALUE DUP1 ISZERO PUSH2 0x10 JUMPI PUSH1 0x0 DUP1 REVERT JUMPDEST POP PUSH1 0x40 MLOAD PUSH2 0xB5E CODESIZE SUB DUP1 PUSH2 0xB5E DUP4 CODECOPY DUP2 DUP2 ADD PUSH1 0x40 MSTORE DUP2 ADD SWAP1 PUSH2 0x32 SWAP2 SWAP1 PUSH2 0xDB JUMP JUMPDEST DUP1 PUSH1 0x0 DUP1 PUSH2 0x100 EXP DUP2 SLOAD DUP2 PUSH20 0xFFFFFFFFFFFFFFFFFFFFFFFFFFFFFFFFFFFFFFFF MUL NOT AND SWAP1 DUP4 PUSH20 0xFFFFFFFFFFFFFFFFFFFFFFFFFFFFFFFFFFFFFFFF AND MUL OR SWAP1 SSTORE POP POP PUSH2 0x108 JUMP JUMPDEST PUSH1 0x0 DUP1 REVERT JUMPDEST PUSH1 0x0 PUSH20 0xFFFFFFFFFFFFFFFFFFFFFFFFFFFFFFFFFFFFFFFF DUP3 AND SWAP1 POP SWAP2 SWAP1 POP JUMP JUMPDEST PUSH1 0x0 PUSH2 0xA8 DUP3 PUSH2 0x7D JUMP JUMPDEST SWAP1 POP SWAP2 SWAP1 POP JUMP JUMPDEST PUSH2 0xB8 DUP2 PUSH2 0x9D JUMP JUMPDEST DUP2 EQ PUSH2 0xC3 JUMPI PUSH1 0x0 DUP1 REVERT JUMPDEST POP JUMP JUMPDEST PUSH1 0x0 DUP2 MLOAD SWAP1 POP PUSH2 0xD5 DUP2 PUSH2 0xAF JUMP JUMPDEST SWAP3 SWAP2 POP POP JUMP JUMPDEST PUSH1 0x0 PUSH1 0x20 DUP3 DUP5 SUB SLT ISZERO PUSH2 0xF1 JUMPI PUSH2 0xF0 PUSH2 0x78 JUMP JUMPDEST JUMPDEST PUSH1 0x0 PUSH2 0xFF DUP5 DUP3 DUP6 ADD PUSH2 0xC6 JUMP JUMPDEST SWAP2 POP POP SWAP3 SWAP2 POP POP JUMP JUMPDEST PUSH2 0xA47 DUP1 PUSH2 0x117 PUSH1 0x0 CODECOPY PUSH1 0x0 RETURN INVALID PUSH1 0x80 PUSH1 0x40 MSTORE CALLVALUE DUP1 ISZERO PUSH2 0x10 JUMPI PUSH1 0x0 DUP1 REVERT JUMPDEST POP PUSH1 0x4 CALLDATASIZE LT PUSH2 0x36 JUMPI PUSH1 0x0 CALLDATALOAD PUSH1 0xE0 SHR DUP1 PUSH4 0x7B103999 EQ PUSH2 0x3B JUMPI DUP1 PUSH4 0x9F719DD8 EQ PUSH2 0x59 JUMPI JUMPDEST PUSH1 0x0 DUP1 REVERT JUMPDEST PUSH2 0x43 PUSH2 0x89 JUMP JUMPDEST PUSH1 0x40 MLOAD PUSH2 0x50 SWAP2 SWAP1 PUSH2 0x452 JUMP JUMPDEST PUSH1 0x40 MLOAD DUP1 SWAP2 SUB SWAP1 RETURN JUMPDEST PUSH2 0x73 PUSH1 0x4 DUP1 CALLDATASIZE SUB DUP2 ADD SWAP1 PUSH2 0x6E SWAP2 SWAP1 PUSH2 0x4E6 JUMP JUMPDEST PUSH2 0xAD JUMP JUMPDEST PUSH1 0x40 MLOAD PUSH2 0x80 SWAP2 SWAP1 PUSH2 0x582 JUMP JUMPDEST PUSH1 0x40 MLOAD DUP1 SWAP2 SUB SWAP1 RETURN JUMPDEST PUSH1 0x0 DUP1 SLOAD SWAP1 PUSH2 0x100 EXP SWAP1 DIV PUSH20 0xFFFFFFFFFFFFFFFFFFFFFFFFFFFFFFFFFFFFFFFF AND DUP2 JUMP JUMPDEST PUSH1 0x0 DUP1 PUSH1 0x0 DUP1 PUSH1 0x0 SWAP1 SLOAD SWAP1 PUSH2 0x100 EXP SWAP1 DIV PUSH20 0xFFFFFFFFFFFFFFFFFFFFFFFFFFFFFFFFFFFFFFFF AND PUSH20 0xFFFFFFFFFFFFFFFFFFFFFFFFFFFFFFFFFFFFFFFF AND PUSH4 0xB71A0346 DUP9 DUP9 PUSH1 0x40 MLOAD DUP4 PUSH4 0xFFFFFFFF AND PUSH1 0xE0 SHL DUP2 MSTORE PUSH1 0x4 ADD PUSH2 0x10E SWAP3 SWAP2 SWAP1 PUSH2 0x5FB JUMP JUMPDEST PUSH1 0x0 PUSH1 0x40 MLOAD DUP1 DUP4 SUB DUP2 DUP7 GAS STATICCALL ISZERO DUP1 ISZERO PUSH2 0x12B JUMPI RETURNDATASIZE PUSH1 0x0 DUP1 RETURNDATACOPY RETURNDATASIZE PUSH1 0x0 REVERT JUMPDEST POP POP POP POP PUSH1 0x40 MLOAD RETURNDATASIZE PUSH1 0x0 DUP3 RETURNDATACOPY RETURNDATASIZE PUSH1 0x1F NOT PUSH1 0x1F DUP3 ADD AND DUP3 ADD DUP1 PUSH1 0x40 MSTORE POP DUP2 ADD SWAP1 PUSH2 0x154 SWAP2 SWAP1 PUSH2 0x802 JUMP JUMPDEST POP SWAP3 POP SWAP3 POP POP PUSH1 0x0 DUP1 PUSH1 0x0 DUP1 SLOAD SWAP1 PUSH2 0x100 EXP SWAP1 DIV PUSH20 0xFFFFFFFFFFFFFFFFFFFFFFFFFFFFFFFFFFFFFFFF AND PUSH20 0xFFFFFFFFFFFFFFFFFFFFFFFFFFFFFFFFFFFFFFFF AND PUSH4 0xB71A0346 DUP9 DUP9 PUSH1 0x40 MLOAD DUP4 PUSH4 0xFFFFFFFF AND PUSH1 0xE0 SHL DUP2 MSTORE PUSH1 0x4 ADD PUSH2 0x1B8 SWAP3 SWAP2 SWAP1 PUSH2 0x5FB JUMP JUMPDEST PUSH1 0x0 PUSH1 0x40 MLOAD DUP1 DUP4 SUB DUP2 DUP7 GAS STATICCALL ISZERO DUP1 ISZERO PUSH2 0x1D5 JUMPI RETURNDATASIZE PUSH1 0x0 DUP1 RETURNDATACOPY RETURNDATASIZE PUSH1 0x0 REVERT JUMPDEST POP POP POP POP PUSH1 0x40 MLOAD RETURNDATASIZE PUSH1 0x0 DUP3 RETURNDATACOPY RETURNDATASIZE PUSH1 0x1F NOT PUSH1 0x1F DUP3 ADD AND DUP3 ADD DUP1 PUSH1 0x40 MSTORE POP DUP2 ADD SWAP1 PUSH2 0x1FE SWAP2 SWAP1 PUSH2 0x802 JUMP JUMPDEST POP SWAP3 POP SWAP3 POP POP DUP3 ISZERO DUP1 PUSH2 0x20F JUMPI POP DUP1 ISZERO JUMPDEST ISZERO PUSH2 0x25E JUMPI PUSH32 0x401E06D1C67109A0D6B4517A119EE809DFB1ED46A93BC098AEF4E05106F8D411 DUP10 DUP10 DUP10 DUP10 PUSH1 0x40 MLOAD PUSH2 0x249 SWAP5 SWAP4 SWAP3 SWAP2 SWAP1 PUSH2 0x8D1 JUMP JUMPDEST PUSH1 0x40 MLOAD DUP1 SWAP2 SUB SWAP1 LOG1 PUSH1 0x0 SWAP5 POP POP POP POP POP PUSH2 0x2FD JUMP JUMPDEST PUSH1 0x0 PUSH2 0x26A DUP6 DUP5 PUSH2 0x305 JUMP JUMPDEST SWAP1 POP DUP1 ISZERO PUSH2 0x2B6 JUMPI PUSH32 0x782F1AED3AB0EC05A4ACFC688A38588753C1DA1FF5DB0A13F800DBD59EB234FE DUP11 DUP11 DUP11 DUP11 TIMESTAMP PUSH1 0x40 MLOAD PUSH2 0x2A9 SWAP6 SWAP5 SWAP4 SWAP3 SWAP2 SWAP1 PUSH2 0x92E JUMP JUMPDEST PUSH1 0x40 MLOAD DUP1 SWAP2 SUB SWAP1 LOG1 PUSH2 0x2F4 JUMP JUMPDEST PUSH32 0x401E06D1C67109A0D6B4517A119EE809DFB1ED46A93BC098AEF4E05106F8D411 DUP11 DUP11 DUP11 DUP11 PUSH1 0x40 MLOAD PUSH2 0x2EB SWAP5 SWAP4 SWAP3 SWAP2 SWAP1 PUSH2 0x9C3 JUMP JUMPDEST PUSH1 0x40 MLOAD DUP1 SWAP2 SUB SWAP1 LOG1 JUMPDEST DUP1 SWAP6 POP POP POP POP POP POP JUMPDEST SWAP5 SWAP4 POP POP POP POP JUMP JUMPDEST PUSH1 0x0 DUP1 DUP4 DUP1 MLOAD SWAP1 PUSH1 0x20 ADD KECCAK256 SWAP1 POP PUSH1 0x0 DUP4 DUP1 MLOAD SWAP1 PUSH1 0x20 ADD KECCAK256 SWAP1 POP PUSH1 0x0 PUSH32 0xF23EC0BB4210EDD5CBA85AFD05127EFCD2FC6A781BFED49188DA1081670B22D8 SWAP1 POP PUSH1 0x0 PUSH32 0xEC03945FA2196716A09674E2CD6A57153479ECB05EA91E189E2688F793AB5381 SWAP1 POP PUSH1 0x0 PUSH32 0x7A749B48408530F1FD2D5F006C4CE6784659E92480E0ABB9BD153845467046A8 SWAP1 POP DUP3 DUP6 SUB PUSH2 0x3A2 JUMPI PUSH1 0x1 SWAP6 POP POP POP POP POP POP PUSH2 0x3CD JUMP JUMPDEST DUP2 DUP6 SUB PUSH2 0x3C2 JUMPI DUP2 DUP5 EQ DUP1 PUSH2 0x3B6 JUMPI POP DUP1 DUP5 EQ JUMPDEST SWAP6 POP POP POP POP POP POP PUSH2 0x3CD JUMP JUMPDEST DUP4 DUP6 EQ SWAP6 POP POP POP POP POP POP JUMPDEST SWAP3 SWAP2 POP POP JUMP JUMPDEST PUSH1 0x0 PUSH20 0xFFFFFFFFFFFFFFFFFFFFFFFFFFFFFFFFFFFFFFFF DUP3 AND SWAP1 POP SWAP2 SWAP1 POP JUMP JUMPDEST PUSH1 0x0 DUP2 SWAP1 POP SWAP2 SWAP1 POP JUMP JUMPDEST PUSH1 0x0 PUSH2 0x418 PUSH2 0x413 PUSH2 0x40E DUP5 PUSH2 0x3D3 JUMP JUMPDEST PUSH2 0x3F3 JUMP JUMPDEST PUSH2 0x3D3 JUMP JUMPDEST SWAP1 POP SWAP2 SWAP1 POP JUMP JUMPDEST PUSH1 0x0 PUSH2 0x42A DUP3 PUSH2 0x3FD JUMP JUMPDEST SWAP1 POP SWAP2 SWAP1 POP JUMP JUMPDEST PUSH1 0x0 PUSH2 0x43C DUP3 PUSH2 0x41F JUMP JUMPDEST SWAP1 POP SWAP2 SWAP1 POP JUMP JUMPDEST PUSH2 0x44C DUP2 PUSH2 0x431 JUMP JUMPDEST DUP3 MSTORE POP POP JUMP JUMPDEST PUSH1 0x0 PUSH1 0x20 DUP3 ADD SWAP1 POP PUSH2 0x467 PUSH1 0x0 DUP4 ADD DUP5 PUSH2 0x443 JUMP JUMPDEST SWAP3 SWAP2 POP POP JUMP JUMPDEST PUSH1 0x0 PUSH1 0x40 MLOAD SWAP1 POP SWAP1 JUMP JUMPDEST PUSH1 0x0 DUP1 REVERT JUMPDEST PUSH1 0x0 DUP1 REVERT JUMPDEST PUSH1 0x0 DUP1 REVERT JUMPDEST PUSH1 0x0 DUP1 REVERT JUMPDEST PUSH1 0x0 DUP1 REVERT JUMPDEST PUSH1 0x0 DUP1 DUP4 PUSH1 0x1F DUP5 ADD SLT PUSH2 0x4A6 JUMPI PUSH2 0x4A5 PUSH2 0x481 JUMP JUMPDEST JUMPDEST DUP3 CALLDATALOAD SWAP1 POP PUSH8 0xFFFFFFFFFFFFFFFF DUP2 GT ISZERO PUSH2 0x4C3 JUMPI PUSH2 0x4C2 PUSH2 0x486 JUMP JUMPDEST JUMPDEST PUSH1 0x20 DUP4 ADD SWAP2 POP DUP4 PUSH1 0x1 DUP3 MUL DUP4 ADD GT ISZERO PUSH2 0x4DF JUMPI PUSH2 0x4DE PUSH2 0x48B JUMP JUMPDEST JUMPDEST SWAP3 POP SWAP3 SWAP1 POP JUMP JUMPDEST PUSH1 0x0 DUP1 PUSH1 0x0 DUP1 PUSH1 0x40 DUP6 DUP8 SUB SLT ISZERO PUSH2 0x500 JUMPI PUSH2 0x4FF PUSH2 0x477 JUMP JUMPDEST JUMPDEST PUSH1 0x0 DUP6 ADD CALLDATALOAD PUSH8 0xFFFFFFFFFFFFFFFF DUP2 GT ISZERO PUSH2 0x51E JUMPI PUSH2 0x51D PUSH2 0x47C JUMP JUMPDEST JUMPDEST PUSH2 0x52A DUP8 DUP3 DUP9 ADD PUSH2 0x490 JUMP JUMPDEST SWAP5 POP SWAP5 POP POP PUSH1 0x20 DUP6 ADD CALLDATALOAD PUSH8 0xFFFFFFFFFFFFFFFF DUP2 GT ISZERO PUSH2 0x54D JUMPI PUSH2 0x54C PUSH2 0x47C JUMP JUMPDEST JUMPDEST PUSH2 0x559 DUP8 DUP3 DUP9 ADD PUSH2 0x490 JUMP JUMPDEST SWAP3 POP SWAP3 POP POP SWAP3 SWAP6 SWAP2 SWAP5 POP SWAP3 POP JUMP JUMPDEST PUSH1 0x0 DUP2 ISZERO ISZERO SWAP1 POP SWAP2 SWAP1 POP JUMP JUMPDEST PUSH2 0x57C DUP2 PUSH2 0x567 JUMP JUMPDEST DUP3 MSTORE POP POP JUMP JUMPDEST PUSH1 0x0 PUSH1 0x20 DUP3 ADD SWAP1 POP PUSH2 0x597 PUSH1 0x0 DUP4 ADD DUP5 PUSH2 0x573 JUMP JUMPDEST SWAP3 SWAP2 POP POP JUMP JUMPDEST PUSH1 0x0 DUP3 DUP3 MSTORE PUSH1 0x20 DUP3 ADD SWAP1 POP SWAP3 SWAP2 POP POP JUMP JUMPDEST DUP3 DUP2 DUP4 CALLDATACOPY PUSH1 0x0 DUP4 DUP4 ADD MSTORE POP POP POP JUMP JUMPDEST PUSH1 0x0 PUSH1 0x1F NOT PUSH1 0x1F DUP4 ADD AND SWAP1 POP SWAP2 SWAP1 POP JUMP JUMPDEST PUSH1 0x0 PUSH2 0x5DA DUP4 DUP6 PUSH2 0x59D JUMP JUMPDEST SWAP4 POP PUSH2 0x5E7 DUP4 DUP6 DUP5 PUSH2 0x5AE JUMP JUMPDEST PUSH2 0x5F0 DUP4 PUSH2 0x5BD JUMP JUMPDEST DUP5 ADD SWAP1 POP SWAP4 SWAP3 POP POP POP JUMP JUMPDEST PUSH1 0x0 PUSH1 0x20 DUP3 ADD SWAP1 POP DUP2 DUP2 SUB PUSH1 0x0 DUP4 ADD MSTORE PUSH2 0x616 DUP2 DUP5 DUP7 PUSH2 0x5CE JUMP JUMPDEST SWAP1 POP SWAP4 SWAP3 POP POP POP JUMP JUMPDEST PUSH1 0x0 DUP2 SWAP1 POP SWAP2 SWAP1 POP JUMP JUMPDEST PUSH2 0x632 DUP2 PUSH2 0x61F JUMP JUMPDEST DUP2 EQ PUSH2 0x63D JUMPI PUSH1 0x0 DUP1 REVERT JUMPDEST POP JUMP JUMPDEST PUSH1 0x0 DUP2 MLOAD SWAP1 POP PUSH2 0x64F DUP2 PUSH2 0x629 JUMP JUMPDEST SWAP3 SWAP2 POP POP JUMP JUMPDEST PUSH1 0x0 DUP1 REVERT JUMPDEST PUSH32 0x4E487B7100000000000000000000000000000000000000000000000000000000 PUSH1 0x0 MSTORE PUSH1 0x41 PUSH1 0x4 MSTORE PUSH1 0x24 PUSH1 0x0 REVERT JUMPDEST PUSH2 0x692 DUP3 PUSH2 0x5BD JUMP JUMPDEST DUP2 ADD DUP2 DUP2 LT PUSH8 0xFFFFFFFFFFFFFFFF DUP3 GT OR ISZERO PUSH2 0x6B1 JUMPI PUSH2 0x6B0 PUSH2 0x65A JUMP JUMPDEST JUMPDEST DUP1 PUSH1 0x40 MSTORE POP POP POP JUMP JUMPDEST PUSH1 0x0 PUSH2 0x6C4 PUSH2 0x46D JUMP JUMPDEST SWAP1 POP PUSH2 0x6D0 DUP3 DUP3 PUSH2 0x689 JUMP JUMPDEST SWAP2 SWAP1 POP JUMP JUMPDEST PUSH1 0x0 PUSH8 0xFFFFFFFFFFFFFFFF DUP3 GT ISZERO PUSH2 0x6F0 JUMPI PUSH2 0x6EF PUSH2 0x65A JUMP JUMPDEST JUMPDEST PUSH2 0x6F9 DUP3 PUSH2 0x5BD JUMP JUMPDEST SWAP1 POP PUSH1 0x20 DUP2 ADD SWAP1 POP SWAP2 SWAP1 POP JUMP JUMPDEST PUSH1 0x0 JUMPDEST DUP4 DUP2 LT ISZERO PUSH2 0x724 JUMPI DUP1 DUP3 ADD MLOAD DUP2 DUP5 ADD MSTORE PUSH1 0x20 DUP2 ADD SWAP1 POP PUSH2 0x709 JUMP JUMPDEST PUSH1 0x0 DUP5 DUP5 ADD MSTORE POP POP POP POP JUMP JUMPDEST PUSH1 0x0 PUSH2 0x743 PUSH2 0x73E DUP5 PUSH2 0x6D5 JUMP JUMPDEST PUSH2 0x6BA JUMP JUMPDEST SWAP1 POP DUP3 DUP2 MSTORE PUSH1 0x20 DUP2 ADD DUP5 DUP5 DUP5 ADD GT ISZERO PUSH2 0x75F JUMPI PUSH2 0x75E PUSH2 0x655 JUMP JUMPDEST JUMPDEST PUSH2 0x76A DUP5 DUP3 DUP6 PUSH2 0x706 JUMP JUMPDEST POP SWAP4 SWAP3 POP POP POP JUMP JUMPDEST PUSH1 0x0 DUP3 PUSH1 0x1F DUP4 ADD SLT PUSH2 0x787 JUMPI PUSH2 0x786 PUSH2 0x481 JUMP JUMPDEST JUMPDEST DUP2 MLOAD PUSH2 0x797 DUP5 DUP3 PUSH1 0x20 DUP7 ADD PUSH2 0x730 JUMP JUMPDEST SWAP2 POP POP SWAP3 SWAP2 POP POP JUMP JUMPDEST PUSH2 0x7A9 DUP2 PUSH2 0x567 JUMP JUMPDEST DUP2 EQ PUSH2 0x7B4 JUMPI PUSH1 0x0 DUP1 REVERT JUMPDEST POP JUMP JUMPDEST PUSH1 0x0 DUP2 MLOAD SWAP1 POP PUSH2 0x7C6 DUP2 PUSH2 0x7A0 JUMP JUMPDEST SWAP3 SWAP2 POP POP JUMP JUMPDEST PUSH1 0x0 DUP2 SWAP1 POP SWAP2 SWAP1 POP JUMP JUMPDEST PUSH2 0x7DF DUP2 PUSH2 0x7CC JUMP JUMPDEST DUP2 EQ PUSH2 0x7EA JUMPI PUSH1 0x0 DUP1 REVERT JUMPDEST POP JUMP JUMPDEST PUSH1 0x0 DUP2 MLOAD SWAP1 POP PUSH2 0x7FC DUP2 PUSH2 0x7D6 JUMP JUMPDEST SWAP3 SWAP2 POP POP JUMP JUMPDEST PUSH1 0x0 DUP1 PUSH1 0x0 DUP1 PUSH1 0x80 DUP6 DUP8 SUB SLT ISZERO PUSH2 0x81C JUMPI PUSH2 0x81B PUSH2 0x477 JUMP JUMPDEST JUMPDEST PUSH1 0x0 PUSH2 0x82A DUP8 DUP3 DUP9 ADD PUSH2 0x640 JUMP JUMPDEST SWAP5 POP POP PUSH1 0x20 DUP6 ADD MLOAD PUSH8 0xFFFFFFFFFFFFFFFF DUP2 GT ISZERO PUSH2 0x84B JUMPI PUSH2 0x84A PUSH2 0x47C JUMP JUMPDEST JUMPDEST PUSH2 0x857 DUP8 DUP3 DUP9 ADD PUSH2 0x772 JUMP JUMPDEST SWAP4 POP POP PUSH1 0x40 PUSH2 0x868 DUP8 DUP3 DUP9 ADD PUSH2 0x7B7 JUMP JUMPDEST SWAP3 POP POP PUSH1 0x60 PUSH2 0x879 DUP8 DUP3 DUP9 ADD PUSH2 0x7ED JUMP JUMPDEST SWAP2 POP POP SWAP3 SWAP6 SWAP2 SWAP5 POP SWAP3 POP JUMP JUMPDEST PUSH32 0x446576696365206E6F7420726567697374657265640000000000000000000000 PUSH1 0x0 DUP3 ADD MSTORE POP JUMP JUMPDEST PUSH1 0x0 PUSH2 0x8BB PUSH1 0x15 DUP4 PUSH2 0x59D JUMP JUMPDEST SWAP2 POP PUSH2 0x8C6 DUP3 PUSH2 0x885 JUMP JUMPDEST PUSH1 0x20 DUP3 ADD SWAP1 POP SWAP2 SWAP1 POP JUMP JUMPDEST PUSH1 0x0 PUSH1 0x60 DUP3 ADD SWAP1 POP DUP2 DUP2 SUB PUSH1 0x0 DUP4 ADD MSTORE PUSH2 0x8EC DUP2 DUP7 DUP9 PUSH2 0x5CE JUMP JUMPDEST SWAP1 POP DUP2 DUP2 SUB PUSH1 0x20 DUP4 ADD MSTORE PUSH2 0x901 DUP2 DUP5 DUP7 PUSH2 0x5CE JUMP JUMPDEST SWAP1 POP DUP2 DUP2 SUB PUSH1 0x40 DUP4 ADD MSTORE PUSH2 0x914 DUP2 PUSH2 0x8AE JUMP JUMPDEST SWAP1 POP SWAP6 SWAP5 POP POP POP POP POP JUMP JUMPDEST PUSH2 0x928 DUP2 PUSH2 0x7CC JUMP JUMPDEST DUP3 MSTORE POP POP JUMP JUMPDEST PUSH1 0x0 PUSH1 0x60 DUP3 ADD SWAP1 POP DUP2 DUP2 SUB PUSH1 0x0 DUP4 ADD MSTORE PUSH2 0x949 DUP2 DUP8 DUP10 PUSH2 0x5CE JUMP JUMPDEST SWAP1 POP DUP2 DUP2 SUB PUSH1 0x20 DUP4 ADD MSTORE PUSH2 0x95E DUP2 DUP6 DUP8 PUSH2 0x5CE JUMP JUMPDEST SWAP1 POP PUSH2 0x96D PUSH1 0x40 DUP4 ADD DUP5 PUSH2 0x91F JUMP JUMPDEST SWAP7 SWAP6 POP POP POP POP POP POP JUMP JUMPDEST PUSH32 0x526F6C65206E6F7420617574686F72697A656400000000000000000000000000 PUSH1 0x0 DUP3 ADD MSTORE POP JUMP JUMPDEST PUSH1 0x0 PUSH2 0x9AD PUSH1 0x13 DUP4 PUSH2 0x59D JUMP JUMPDEST SWAP2 POP PUSH2 0x9B8 DUP3 PUSH2 0x977 JUMP JUMPDEST PUSH1 0x20 DUP3 ADD SWAP1 POP SWAP2 SWAP1 POP JUMP JUMPDEST PUSH1 0x0 PUSH1 0x60 DUP3 ADD SWAP1 POP DUP2 DUP2 SUB PUSH1 0x0 DUP4 ADD MSTORE PUSH2 0x9DE DUP2 DUP7 DUP9 PUSH2 0x5CE JUMP JUMPDEST SWAP1 POP DUP2 DUP2 SUB PUSH1 0x20 DUP4 ADD MSTORE PUSH2 0x9F3 DUP2 DUP5 DUP7 PUSH2 0x5CE JUMP JUMPDEST SWAP1 POP DUP2 DUP2 SUB PUSH1 0x40 DUP4 ADD MSTORE PUSH2 0xA06 DUP2 PUSH2 0x9A0 JUMP JUMPDEST SWAP1 POP SWAP6 SWAP5 POP POP POP POP POP JUMP INVALID LOG2 PUSH5 0x6970667358 0x22 SLT KECCAK256 LOG3 0xB1 SWAP14 0x4B 0xAA SLOAD 0xEB SWAP5 PUSH30 0x40E193B3621479E845DD4850B0C722331A62E72E6DD04464736F6C634300 ADDMOD EQ STOP CALLER "},"methodIdentifiers":{"checkAccess(string,string)":"9f719dd8","registry()":"7b103999"}}}}}