{"contracts/DeviceRegistry.sol":{"DeviceRegistry":{"abi":[{"inputs":[],"stateMutability":"nonpayable","type":"constructor"},{"anonymous":false,"inputs":[{"indexed":false,"internalType":"string","name":"deviceId","type":"string"},{"indexed":false,"internalType":"string","name":"role","type":"string"},{"indexed":false,"internalType":"bytes32","name":"pkHash","type":"bytes32"}],"name":"DeviceRegistered","type":"event"},{"inputs":[],"name":"admin","outputs":[{"internalType":"address","name":"","type":"address"}],"stateMutability":"view","type":"function"},{"inputs":[{"internalType":"string","name":"","type":"string"}],"name":"devices","outputs":[{"internalType":"bytes32","name":"pkHash","type":"bytes32"},{"internalType":"string","name":"role","type":"string"},{"internalType":"bool","name":"registered","type":"bool"},{"internalType":"uint256","name":"registeredAt","type":"uint256"}],"stateMutability":"view","type":"function"},{"inputs":[{"internalType":"string","name":"deviceId","type":"string"}],"name":"getDevice","outputs":[{"internalType":"bytes32","name":"","type":"bytes32"},{"internalType":"string","name":"","type":"string"},{"internalType":"bool","name":"","type":"bool"},{"internalType":"uint256","name":"","type":"uint256"}],"stateMutability":"view","type":"function"},{"inputs":[{"internalType":"string","name":"deviceId","type":"string"},{"internalType":"string","name":"role","type":"string"},{"internalType":"bytes32","name":"pkHash","type":"bytes32"}],"name":"registerDevice","outputs":[],"stateMutability":"nonpayable","type":"function"}],"evm":{"bytecode":{"linkReferences":{},"object":"608060405234801561001057600080fd5b50336000806101000a81548173ffffffffffffffffffffffffffffffffffffffff021916908373ffffffffffffffffffffffffffffffffffffffff160217905550610e57806100606000396000f3fe608060405234801561001057600080fd5b506004361061004c5760003560e01c80632223339614610051578063b71a034614610084578063f16d6629146100b7578063f851a440146100d3575b600080fd5b61006b60048036038101906100669190610681565b6100f1565b60405161007b9493929190610796565b60405180910390f35b61009e60048036038101906100999190610842565b6101cc565b6040516100ae9493929190610796565b60405180910390f35b6100d160048036038101906100cc91906108bb565b6102e9565b005b6100db610503565b6040516100e89190610991565b60405180910390f35b600181805160208101820180518482526020830160208501208183528095505050505050600091509050806000015490806001018054610130906109db565b80601f016020809104026020016040519081016040528092919081815260200182805461015c906109db565b80156101a95780601f1061017e576101008083540402835291602001916101a9565b820191906000526020600020905b81548152906001019060200180831161018c57829003601f168201915b5050505050908060020160009054906101000a900460ff16908060030154905084565b600060606000806000600187876040516101e7929190610a3c565b90815260200160405180910390206040518060800160405290816000820154815260200160018201805461021a906109db565b80601f0160208091040260200160405190810160405280929190818152602001828054610246906109db565b80156102935780601f1061026857610100808354040283529160200191610293565b820191906000526020600020905b81548152906001019060200180831161027657829003601f168201915b505050505081526020016002820160009054906101000a900460ff161515151581526020016003820154815250509050806000015181602001518260400151836060015194509450945094505092959194509250565b60008054906101000a900473ffffffffffffffffffffffffffffffffffffffff1673ffffffffffffffffffffffffffffffffffffffff163373ffffffffffffffffffffffffffffffffffffffff1614610377576040517f08c379a000000000000000000000000000000000000000000000000000000000815260040161036e90610aa1565b60405180910390fd5b60018585604051610389929190610a3c565b908152602001604051809103902060020160009054906101000a900460ff16156103e8576040517f08c379a00000000000000000000000000000000000000000000000000000000081526004016103df90610b0d565b60405180910390fd5b604051806080016040528082815260200184848080601f016020809104026020016040519081016040528093929190818152602001838380828437600081840152601f19601f8201169050808301925050505050505081526020016001151581526020014281525060018686604051610462929190610a3c565b908152602001604051809103902060008201518160000155602082015181600101908161048f9190610cd9565b5060408201518160020160006101000a81548160ff021916908315150217905550606082015181600301559050507f74d072716b751d98c8782ee120c73b2835993997bd4933df5fd85c764f77c29f85858585856040516104f4959493929190610dd8565b60405180910390a15050505050565b60008054906101000a900473ffffffffffffffffffffffffffffffffffffffff1681565b6000604051905090565b600080fd5b600080fd5b600080fd5b600080fd5b6000601f19601f8301169050919050565b7f4e487b7100000000000000000000000000000000000000000000000000000000600052604160045260246000fd5b61058e82610545565b810181811067ffffffffffffffff821117156105ad576105ac610556565b5b80604052505050565b60006105c0610527565b90506105cc8282610585565b919050565b600067ffffffffffffffff8211156105ec576105eb610556565b5b6105f582610545565b9050602081019050919050565b82818337600083830152505050565b600061062461061f846105d1565b6105b6565b9050828152602081018484840111156106405761063f610540565b5b61064b848285610602565b509392505050565b600082601f8301126106685761066761053b565b5b8135610678848260208601610611565b91505092915050565b60006020828403121561069757610696610531565b5b600082013567ffffffffffffffff8111156106b5576106b4610536565b5b6106c184828501610653565b91505092915050565b6000819050919050565b6106dd816106ca565b82525050565b600081519050919050565b600082825260208201905092915050565b60005b8381101561071d578082015181840152602081019050610702565b60008484015250505050565b6000610734826106e3565b61073e81856106ee565b935061074e8185602086016106ff565b61075781610545565b840191505092915050565b60008115159050919050565b61077781610762565b82525050565b6000819050919050565b6107908161077d565b82525050565b60006080820190506107ab60008301876106d4565b81810360208301526107bd8186610729565b90506107cc604083018561076e565b6107d96060830184610787565b95945050505050565b600080fd5b600080fd5b60008083601f8401126108025761080161053b565b5b8235905067ffffffffffffffff81111561081f5761081e6107e2565b5b60208301915083600182028301111561083b5761083a6107e7565b5b9250929050565b6000806020838503121561085957610858610531565b5b600083013567ffffffffffffffff81111561087757610876610536565b5b610883858286016107ec565b92509250509250929050565b610898816106ca565b81146108a357600080fd5b50565b6000813590506108b58161088f565b92915050565b6000806000806000606086880312156108d7576108d6610531565b5b600086013567ffffffffffffffff8111156108f5576108f4610536565b5b610901888289016107ec565b9550955050602086013567ffffffffffffffff81111561092457610923610536565b5b610930888289016107ec565b93509350506040610943888289016108a6565b9150509295509295909350565b600073ffffffffffffffffffffffffffffffffffffffff82169050919050565b600061097b82610950565b9050919050565b61098b81610970565b82525050565b60006020820190506109a66000830184610982565b92915050565b7f4e487b7100000000000000000000000000000000000000000000000000000000600052602260045260246000fd5b600060028204905060018216806109f357607f821691505b602082108103610a0657610a056109ac565b5b50919050565b600081905092915050565b6000610a238385610a0c565b9350610a30838584610602565b82840190509392505050565b6000610a49828486610a17565b91508190509392505050565b7f4e6f742061646d696e0000000000000000000000000000000000000000000000600082015250565b6000610a8b6009836106ee565b9150610a9682610a55565b602082019050919050565b60006020820190508181036000830152610aba81610a7e565b9050919050565b7f416c726561647920726567697374657265640000000000000000000000000000600082015250565b6000610af76012836106ee565b9150610b0282610ac1565b602082019050919050565b60006020820190508181036000830152610b2681610aea565b9050919050565b60008190508160005260206000209050919050565b60006020601f8301049050919050565b600082821b905092915050565b600060088302610b8f7fffffffffffffffffffffffffffffffffffffffffffffffffffffffffffffffff82610b52565b610b998683610b52565b95508019841693508086168417925050509392505050565b6000819050919050565b6000610bd6610bd1610bcc8461077d565b610bb1565b61077d565b9050919050565b6000819050919050565b610bf083610bbb565b610c04610bfc82610bdd565b848454610b5f565b825550505050565b600090565b610c19610c0c565b610c24818484610be7565b505050565b5b81811015610c4857610c3d600082610c11565b600181019050610c2a565b5050565b601f821115610c8d57610c5e81610b2d565b610c6784610b42565b81016020851015610c76578190505b610c8a610c8285610b42565b830182610c29565b50505b505050565b600082821c905092915050565b6000610cb060001984600802610c92565b1980831691505092915050565b6000610cc98383610c9f565b9150826002028217905092915050565b610ce2826106e3565b67ffffffffffffffff811115610cfb57610cfa610556565b5b610d0582546109db565b610d10828285610c4c565b600060209050601f831160018114610d435760008415610d31578287015190505b610d3b8582610cbd565b865550610da3565b601f198416610d5186610b2d565b60005b82811015610d7957848901518255600182019150602085019450602081019050610d54565b86831015610d965784890151610d92601f891682610c9f565b8355505b6001600288020188555050505b505050505050565b6000610db783856106ee565b9350610dc4838584610602565b610dcd83610545565b840190509392505050565b60006060820190508181036000830152610df3818789610dab565b90508181036020830152610e08818587610dab565b9050610e1760408301846106d4565b969550505050505056fea264697066735822122062825b91e59041928929c327d5f10ddfc699813c0f16fdaa90a4fdb6b2a594f564736f6c63430008140033","opcodes":"PUSH1 0x80 PUSH1 0x40 MSTORE CALLVALUE DUP1 ISZERO PUSH2 0x10 JUMPI PUSH1 0x0 DUP1 REVERT JUMPDEST POP CALLER PUSH1 0x0 DUP1 PUSH2 0x100 EXP DUP2 SLOAD DUP2 PUSH20 0xFFFFFFFFFFFFFFFFFFFFFFFFFFFFFFFFFFFFFFFF MUL NOT AND SWAP1 DUP4 PUSH20 0xFFFFFFFFFFFFFFFFFFFFFFFFFFFFFFFFFFFFFFFF AND MUL OR SWAP1 SSTORE POP PUSH2 0xE57 DUP1 PUSH2 0x60 PUSH1 0x0 CODECOPY PUSH1 0x0 RETURN INVALID PUSH1 0x80 PUSH1 0x40 MSTORE CALLVALUE DUP1 ISZERO PUSH2 0x10 JUMPI PUSH1 0x0 DUP1 REVERT JUMPDEST POP PUSH1 0x4 CALLDATASIZE LT PUSH2 0x4C JUMPI PUSH1 0x0 CALLDATALOAD PUSH1 0xE0 SHR DUP1 PUSH4 0x22233396 EQ PUSH2 0x51 JUMPI DUP1 PUSH4 0xB71A0346 EQ PUSH2 0x84 JUMPI DUP1 PUSH4 0xF16D6629 EQ PUSH2 0xB7 JUMPI DUP1 PUSH4 0xF851A440 EQ PUSH2 0xD3 JUMPI JUMPDEST PUSH1 0x0 DUP1 REVERT JUMPDEST PUSH2 0x6B PUSH1 0x4 DUP1 CALLDATASIZE SUB DUP2 ADD SWAP1 PUSH2 0x66 SWAP2 SWAP1 PUSH2 0x681 JUMP JUMPDEST PUSH2 0xF1 JUMP JUMPDEST PUSH1 0x40 MLOAD PUSH2 0x7B SWAP5 SWAP4 SWAP3 SWAP2 SWAP1 PUSH2 0x796 JUMP JUMPDEST PUSH1 0x40 MLOAD DUP1 SWAP2 SUB SWAP1 RETURN JUMPDEST PUSH2 0x9E PUSH1 0x4 DUP1 CALLDATASIZE SUB DUP2 ADD SWAP1 PUSH2 0x99 SWAP2 SWAP1 PUSH2 0x842 JUMP JUMPDEST PUSH2 0x1CC JUMP JUMPDEST PUSH1 0x40 MLOAD PUSH2 0xAE SWAP5 SWAP4 SWAP3 SWAP2 SWAP1 PUSH2 0x796 JUMP JUMPDEST PUSH1 0x40 MLOAD DUP1 SWAP2 SUB SWAP1 RETURN JUMPDEST PUSH2 0xD1 PUSH1 0x4 DUP1 CALLDATASIZE SUB DUP2 ADD SWAP1 PUSH2 0xCC SWAP2 SWAP1 PUSH2 0x8BB JUMP JUMPDEST PUSH2 0x2E9 JUMP JUMPDEST STOP JUMPDEST PUSH2 0xDB PUSH2 0x503 JUMP JUMPDEST PUSH1 0x40 MLOAD PUSH2 0xE8 SWAP2 SWAP1 PUSH2 0x991 JUMP JUMPDEST PUSH1 0x40 MLOAD DUP1 SWAP2 SUB SWAP1 RETURN JUMPDEST PUSH1 0x1 DUP2 DUP1 MLOAD PUSH1 0x20 DUP2 ADD DUP3 ADD DUP1 MLOAD DUP5 DUP3 MSTORE PUSH1 0x20 DUP4 ADD PUSH1 0x20 DUP6 ADD KECCAK256 DUP2 DUP4 MSTORE DUP1 SWAP6 POP POP POP POP POP POP PUSH1 0x0 SWAP2 POP SWAP1 POP DUP1 PUSH1 0x0 ADD SLOAD SWAP1 DUP1 PUSH1 0x1 ADD DUP1 SLOAD PUSH2 0x130 SWAP1 PUSH2 0x9DB JUMP JUMPDEST DUP1 PUSH1 0x1F ADD PUSH1 0x20 DUP1 SWAP2 DIV MUL PUSH1 0x20 ADD PUSH1 0x40 MLOAD SWAP1 DUP2 ADD PUSH1 0x40 MSTORE DUP1 SWAP3 SWAP2 SWAP1 DUP2 DUP2 MSTORE PUSH1 0x20 ADD DUP3 DUP1 SLOAD PUSH2 0x15C SWAP1 PUSH2 0x9DB JUMP JUMPDEST DUP1 ISZERO PUSH2 0x1A9 JUMPI DUP1 PUSH1 0x1F LT PUSH2 0x17E JUMPI PUSH2 0x100 DUP1 DUP4 SLOAD DIV MUL DUP4 MSTORE SWAP2 PUSH1 0x20 ADD SWAP2 PUSH2 0x1A9 JUMP JUMPDEST DUP3 ADD SWAP2 SWAP1 PUSH1 0x0 MSTORE PUSH1 0x20 PUSH1 0x0 KECCAK256 SWAP1 JUMPDEST DUP2 SLOAD DUP2 MSTORE SWAP1 PUSH1 0x1 ADD SWAP1 PUSH1 0x20 ADD DUP1 DUP4 GT PUSH2 0x18C JUMPI DUP3 SWAP1 SUB PUSH1 0x1F AND DUP3 ADD SWAP2 JUMPDEST POP POP POP POP POP SWAP1 DUP1 PUSH1 0x2 ADD PUSH1 0x0 SWAP1 SLOAD SWAP1 PUSH2 0x100 EXP SWAP1 DIV PUSH1 0xFF AND SWAP1 DUP1 PUSH1 0x3 ADD SLOAD SWAP1 POP DUP5 JUMP JUMPDEST PUSH1 0x0 PUSH1 0x60 PUSH1 0x0 DUP1 PUSH1 0x0 PUSH1 0x1 DUP8 DUP8 PUSH1 0x40 MLOAD PUSH2 0x1E7 SWAP3 SWAP2 SWAP1 PUSH2 0xA3C JUMP JUMPDEST SWAP1 DUP2 MSTORE PUSH1 0x20 ADD PUSH1 0x40 MLOAD DUP1 SWAP2 SUB SWAP1 KECCAK256 PUSH1 0x40 MLOAD DUP1 PUSH1 0x80 ADD PUSH1 0x40 MSTORE SWAP1 DUP2 PUSH1 0x0 DUP3 ADD SLOAD DUP2 MSTORE PUSH1 0x20 ADD PUSH1 0x1 DUP3 ADD DUP1 SLOAD PUSH2 0x21A SWAP1 PUSH2 0x9DB JUMP JUMPDEST DUP1 PUSH1 0x1F ADD PUSH1 0x20 DUP1 SWAP2 DIV MUL PUSH1 0x20 ADD PUSH1 0x40 MLOAD SWAP1 DUP2 ADD PUSH1 0x40 MSTORE DUP1 SWAP3 SWAP2 SWAP1 DUP2 DUP2 MSTORE PUSH1 0x20 ADD DUP3 DUP1 SLOAD PUSH2 0x246 SWAP1 PUSH2 0x9DB JUMP JUMPDEST DUP1 ISZERO PUSH2 0x293 JUMPI DUP1 PUSH1 0x1F LT PUSH2 0x268 JUMPI PUSH2 0x100 DUP1 DUP4 SLOAD DIV MUL DUP4 MSTORE SWAP2 PUSH1 0x20 ADD SWAP2 PUSH2 0x293 JUMP JUMPDEST DUP3 ADD SWAP2 SWAP1 PUSH1 0x0 MSTORE PUSH1 0x20 PUSH1 0x0 KECCAK256 SWAP1 JUMPDEST DUP2 SLOAD DUP2 MSTORE SWAP1 PUSH1 0x1 ADD SWAP1 PUSH1 0x20 ADD DUP1 DUP4 GT PUSH2 0x276 JUMPI DUP3 SWAP1 SUB PUSH1 0x1F AND DUP3 ADD SWAP2 JUMPDEST POP POP POP POP POP DUP2 MSTORE PUSH1 0x20 ADD PUSH1 0x2 DUP3 ADD PUSH1 0x0 SWAP1 SLOAD SWAP1 PUSH2 0x100 EXP SWAP1 DIV PUSH1 0xFF AND ISZERO ISZERO ISZERO ISZERO DUP2 MSTORE PUSH1 0x20 ADD PUSH1 0x3 DUP3 ADD SLOAD DUP2 MSTORE POP POP SWAP1 POP DUP1 PUSH1 0x0 ADD MLOAD DUP2 PUSH1 0x20 ADD MLOAD DUP3 PUSH1 0x40 ADD MLOAD DUP4 PUSH1 0x60 ADD MLOAD SWAP5 POP SWAP5 POP SWAP5 POP SWAP5 POP POP SWAP3 SWAP6 SWAP2 SWAP5 POP SWAP3 POP JUMP JUMPDEST PUSH1 0x0 DUP1 SLOAD SWAP1 PUSH2 0x100 EXP SWAP1 DIV PUSH20 0xFFFFFFFFFFFFFFFFFFFFFFFFFFFFFFFFFFFFFFFF AND PUSH20 0xFFFFFFFFFFFFFFFFFFFFFFFFFFFFFFFFFFFFFFFF AND CALLER PUSH20 0xFFFFFFFFFFFFFFFFFFFFFFFFFFFFFFFFFFFFFFFF AND EQ PUSH2 0x377 JUMPI PUSH1 0x40 MLOAD PUSH32 0x8C379A000000000000000000000000000000000000000000000000000000000 DUP2 MSTORE PUSH1 0x4 ADD PUSH2 0x36E SWAP1 PUSH2 0xAA1 JUMP JUMPDEST PUSH1 0x40 MLOAD DUP1 SWAP2 SUB SWAP1 REVERT JUMPDEST PUSH1 0x1 DUP6 DUP6 PUSH1 0x40 MLOAD PUSH2 0x389 SWAP3 SWAP2 SWAP1 PUSH2 0xA3C JUMP JUMPDEST SWAP1 DUP2 MSTORE PUSH1 0x20 ADD PUSH1 0x40 MLOAD DUP1 SWAP2 SUB SWAP1 KECCAK256 PUSH1 0x2 ADD PUSH1 0x0 SWAP1 SLOAD SWAP1 PUSH2 0x100 EXP SWAP1 DIV PUSH1 0xFF AND ISZERO PUSH2 0x3E8 JUMPI PUSH1 0x40 MLOAD PUSH32 0x8C379A000000000000000000000000000000000000000000000000000000000 DUP2 MSTORE PUSH1 0x4 ADD PUSH2 0x3DF SWAP1 PUSH2 0xB0D JUMP JUMPDEST PUSH1 0x40 MLOAD DUP1 SWAP2 SUB SWAP1 REVERT JUMPDEST PUSH1 0x40 MLOAD DUP1 PUSH1 0x80 ADD PUSH1 0x40 MSTORE DUP1 DUP3 DUP2 MSTORE PUSH1 0x20 ADD DUP5 DUP5 DUP1 DUP1 PUSH1 0x1F ADD PUSH1 0x20 DUP1 SWAP2 DIV MUL PUSH1 0x20 ADD PUSH1 0x40 MLOAD SWAP1 DUP2 ADD PUSH1 0x40 MSTORE DUP1 SWAP4 SWAP3 SWAP2 SWAP1 DUP2 DUP2 MSTORE PUSH1 0x20 ADD DUP4 DUP4 DUP1 DUP3 DUP5 CALLDATACOPY PUSH1 0x0 DUP2 DUP5 ADD MSTORE PUSH1 0x1F NOT PUSH1 0x1F DUP3 ADD AND SWAP1 POP DUP1 DUP4 ADD SWAP3 POP POP POP POP POP POP POP DUP2 MSTORE PUSH1 0x20 ADD PUSH1 0x1 ISZERO ISZERO DUP2 MSTORE PUSH1 0x20 ADD TIMESTAMP DUP2 MSTORE POP PUSH1 0x1 DUP7 DUP7 PUSH1 0x40 MLOAD PUSH2 0x462 SWAP3 SWAP2 SWAP1 PUSH2 0xA3C JUMP JUMPDEST SWAP1 DUP2 MSTORE PUSH1 0x20 ADD PUSH1 0x40 MLOAD DUP1 SWAP2 SUB SWAP1 KECCAK256 PUSH1 0x0 DUP3 ADD MLOAD DUP2 PUSH1 0x0 ADD SSTORE PUSH1 0x20 DUP3 ADD MLOAD DUP2 PUSH1 0x1 ADD SWAP1 DUP2 PUSH2 0x48F SWAP2 SWAP1 PUSH2 0xCD9 JUMP JUMPDEST POP PUSH1 0x40 DUP3 ADD MLOAD DUP2 PUSH1 0x2 ADD PUSH1 0x0 PUSH2 0x100 EXP DUP2 SLOAD DUP2 PUSH1 0xFF MUL NOT AND SWAP1 DUP4 ISZERO ISZERO MUL OR SWAP1 SSTORE POP PUSH1 0x60 DUP3 ADD MLOAD DUP2 PUSH1 0x3 ADD SSTORE SWAP1 POP POP PUSH32 0x74D072716B751D98C8782EE120C73B2835993997BD4933DF5FD85C764F77C29F DUP6 DUP6 DUP6 DUP6 DUP6 PUSH1 0x40 MLOAD PUSH2 0x4F4 SWAP6 SWAP5 SWAP4 SWAP3 SWAP2 SWAP1 PUSH2 0xDD8 JUMP JUMPDEST PUSH1 0x40 MLOAD DUP1 SWAP2 SUB SWAP1 LOG1 POP POP POP POP POP JUMP JUMPDEST PUSH1 0x0 DUP1 SLOAD SWAP1 PUSH2 0x100 EXP SWAP1 DIV PUSH20 0xFFFFFFFFFFFFFFFFFFFFFFFFFFFFFFFFFFFFFFFF AND DUP2 JUMP JUMPDEST PUSH1 0x0 PUSH1 0x40 MLOAD SWAP1 POP SWAP1 JUMP JUMPDEST PUSH1 0x0 DUP1 REVERT JUMPDEST PUSH1 0x0 DUP1 REVERT JUMPDEST PUSH1 0x0 DUP1 REVERT JUMPDEST PUSH1 0x0 DUP1 REVERT JUMPDEST PUSH1 0x0 PUSH1 0x1F NOT PUSH1 0x1F DUP4 ADD AND SWAP1 POP SWAP2 SWAP1 POP JUMP JUMPDEST PUSH32 0x4E487B7100000000000000000000000000000000000000000000000000000000 PUSH1 0x0 MSTORE PUSH1 0x41 PUSH1 0x4 MSTORE PUSH1 0x24 PUSH1 0x0 REVERT JUMPDEST PUSH2 0x58E DUP3 PUSH2 0x545 JUMP JUMPDEST DUP2 ADD DUP2 DUP2 LT PUSH8 0xFFFFFFFFFFFFFFFF DUP3 GT OR ISZERO PUSH2 0x5AD JUMPI PUSH2 0x5AC PUSH2 0x556 JUMP JUMPDEST JUMPDEST DUP1 PUSH1 0x40 MSTORE POP POP POP JUMP JUMPDEST PUSH1 0x0 PUSH2 0x5C0 PUSH2 0x527 JUMP JUMPDEST SWAP1 POP PUSH2 0x5CC DUP3 DUP3 PUSH2 0x585 JUMP JUMPDEST SWAP2 SWAP1 POP JUMP JUMPDEST PUSH1 0x0 PUSH8 0xFFFFFFFFFFFFFFFF DUP3 GT ISZERO PUSH2 0x5EC JUMPI PUSH2 0x5EB PUSH2 0x556 JUMP JUMPDEST JUMPDEST PUSH2 0x5F5 DUP3 PUSH2 0x545 JUMP JUMPDEST SWAP1 POP PUSH1 0x20 DUP2 ADD SWAP1 POP SWAP2 SWAP1 POP JUMP JUMPDEST DUP3 DUP2 DUP4 CALLDATACOPY PUSH1 0x0 DUP4 DUP4 ADD MSTORE POP POP POP JUMP JUMPDEST PUSH1 0x0 PUSH2 0x624 PUSH2 0x61F DUP5 PUSH2 0x5D1 JUMP JUMPDEST PUSH2 0x5B6 JUMP JUMPDEST SWAP1 POP DUP3 DUP2 MSTORE PUSH1 0x20 DUP2 ADD DUP5 DUP5 DUP5 ADD GT ISZERO PUSH2 0x640 JUMPI PUSH2 0x63F PUSH2 0x540 JUMP JUMPDEST JUMPDEST PUSH2 0x64B DUP5 DUP3 DUP6 PUSH2 0x602 JUMP JUMPDEST POP SWAP4 SWAP3 POP POP POP JUMP JUMPDEST PUSH1 0x0 DUP3 PUSH1 0x1F DUP4 ADD SLT PUSH2 0x668 JUMPI PUSH2 0x667 PUSH2 0x53B JUMP JUMPDEST JUMPDEST DUP2 CALLDATALOAD PUSH2 0x678 DUP5 DUP3 PUSH1 0x20 DUP7 ADD PUSH2 0x611 JUMP JUMPDEST SWAP2 POP POP SWAP3 SWAP2 POP POP JUMP JUMPDEST PUSH1 0x0 PUSH1 0x20 DUP3 DUP5 SUB SLT ISZERO PUSH2 0x697 JUMPI PUSH2 0x696 PUSH2 0x531 JUMP JUMPDEST JUMPDEST PUSH1 0x0 DUP3 ADD CALLDATALOAD PUSH8 0xFFFFFFFFFFFFFFFF DUP2 GT ISZERO PUSH2 0x6B5 JUMPI PUSH2 0x6B4 PUSH2 0x536 JUMP JUMPDEST JUMPDEST PUSH2 0x6C1 DUP5 DUP3 DUP6 ADD PUSH2 0x653 JUMP JUMPDEST SWAP2 POP POP SWAP3 SWAP2 POP POP JUMP JUMPDEST PUSH1 0x0 DUP2 SWAP1 POP SWAP2 SWAP1 POP JUMP JUMPDEST PUSH2 0x6DD DUP2 PUSH2 0x6CA JUMP JUMPDEST DUP3 MSTORE POP POP JUMP JUMPDEST PUSH1 0x0 DUP2 MLOAD SWAP1 POP SWAP2 SWAP1 POP JUMP JUMPDEST PUSH1 0x0 DUP3 DUP3 MSTORE PUSH1 0x20 DUP3 ADD SWAP1 POP SWAP3 SWAP2 POP POP JUMP JUMPDEST PUSH1 0x0 JUMPDEST DUP4 DUP2 LT ISZERO PUSH2 0x71D JUMPI DUP1 DUP3 ADD MLOAD DUP2 DUP5 ADD MSTORE PUSH1 0x20 DUP2 ADD SWAP1 POP PUSH2 0x702 JUMP JUMPDEST PUSH1 0x0 DUP5 DUP5 ADD MSTORE POP POP POP POP JUMP JUMPDEST PUSH1 0x0 PUSH2 0x734 DUP3 PUSH2 0x6E3 JUMP JUMPDEST PUSH2 0x73E DUP2 DUP6 PUSH2 0x6EE JUMP JUMPDEST SWAP4 POP PUSH2 0x74E DUP2 DUP6 PUSH1 0x20 DUP7 ADD PUSH2 0x6FF JUMP JUMPDEST PUSH2 0x757 DUP2 PUSH2 0x545 JUMP JUMPDEST DUP5 ADD SWAP2 POP POP SWAP3 SWAP2 POP POP JUMP JUMPDEST PUSH1 0x0 DUP2 ISZERO ISZERO SWAP1 POP SWAP2 SWAP1 POP JUMP JUMPDEST PUSH2 0x777 DUP2 PUSH2 0x762 JUMP JUMPDEST DUP3 MSTORE POP POP JUMP JUMPDEST PUSH1 0x0 DUP2 SWAP1 POP SWAP2 SWAP1 POP JUMP JUMPDEST PUSH2 0x790 DUP2 PUSH2 0x77D JUMP JUMPDEST DUP3 MSTORE POP POP JUMP JUMPDEST PUSH1 0x0 PUSH1 0x80 DUP3 ADD SWAP1 POP PUSH2 0x7AB PUSH1 0x0 DUP4 ADD DUP8 PUSH2 0x6D4 JUMP JUMPDEST DUP2 DUP2 SUB PUSH1 0x20 DUP4 ADD MSTORE PUSH2 0x7BD DUP2 DUP7 PUSH2 0x729 JUMP JUMPDEST SWAP1 POP PUSH2 0x7CC PUSH1 0x40 DUP4 ADD DUP6 PUSH2 0x76E JUMP JUMPDEST PUSH2 0x7D9 PUSH1 0x60 DUP4 ADD DUP5 PUSH2 0x787 JUMP JUMPDEST SWAP6 SWAP5 POP POP POP POP POP JUMP JUMPDEST PUSH1 0x0 DUP1 REVERT JUMPDEST PUSH1 0x0 DUP1 REVERT JUMPDEST PUSH1 0x0 DUP1 DUP4 PUSH1 0x1F DUP5 ADD SLT PUSH2 0x802 JUMPI PUSH2 0x801 PUSH2 0x53B JUMP JUMPDEST JUMPDEST DUP3 CALLDATALOAD SWAP1 POP PUSH8 0xFFFFFFFFFFFFFFFF DUP2 GT ISZERO PUSH2 0x81F JUMPI PUSH2 0x81E PUSH2 0x7E2 JUMP JUMPDEST JUMPDEST PUSH1 0x20 DUP4 ADD SWAP2 POP DUP4 PUSH1 0x1 DUP3 MUL DUP4 ADD GT ISZERO PUSH2 0x83B JUMPI PUSH2 0x83A PUSH2 0x7E7 JUMP JUMPDEST JUMPDEST SWAP3 POP SWAP3 SWAP1 POP JUMP JUMPDEST PUSH1 0x0 DUP1 PUSH1 0x20 DUP4 DUP6 SUB SLT ISZERO PUSH2 0x859 JUMPI PUSH2 0x858 PUSH2 0x531 JUMP JUMPDEST JUMPDEST PUSH1 0x0 DUP4 ADD CALLDATALOAD PUSH8 0xFFFFFFFFFFFFFFFF DUP2 GT ISZERO PUSH2 0x877 JUMPI PUSH2 0x876 PUSH2 0x536 JUMP JUMPDEST JUMPDEST PUSH2 0x883 DUP6 DUP3 DUP7 ADD PUSH2 0x7EC JUMP JUMPDEST SWAP3 POP SWAP3 POP POP SWAP3 POP SWAP3 SWAP1 POP JUMP JUMPDEST PUSH2 0x898 DUP2 PUSH2 0x6CA JUMP JUMPDEST DUP2 EQ PUSH2 0x8A3 JUMPI PUSH1 0x0 DUP1 REVERT JUMPDEST POP JUMP JUMPDEST PUSH1 0x0 DUP2 CALLDATALOAD SWAP1 POP PUSH2 0x8B5 DUP2 PUSH2 0x88F JUMP JUMPDEST SWAP3 SWAP2 POP POP JUMP JUMPDEST PUSH1 0x0 DUP1 PUSH1 0x0 DUP1 PUSH1 0x0 PUSH1 0x60 DUP7 DUP9 SUB SLT ISZERO PUSH2 0x8D7 JUMPI PUSH2 0x8D6 PUSH2 0x531 JUMP JUMPDEST JUMPDEST PUSH1 0x0 DUP7 ADD CALLDATALOAD PUSH8 0xFFFFFFFFFFFFFFFF DUP2 GT ISZERO PUSH2 0x8F5 JUMPI PUSH2 0x8F4 PUSH2 0x536 JUMP JUMPDEST JUMPDEST PUSH2 0x901 DUP9 DUP3 DUP10 ADD PUSH2 0x7EC JUMP JUMPDEST SWAP6 POP SWAP6 POP POP PUSH1 0x20 DUP7 ADD CALLDATALOAD PUSH8 0xFFFFFFFFFFFFFFFF DUP2 GT ISZERO PUSH2 0x924 JUMPI PUSH2 0x923 PUSH2 0x536 JUMP JUMPDEST JUMPDEST PUSH2 0x930 DUP9 DUP3 DUP10 ADD PUSH2 0x7EC JUMP JUMPDEST SWAP4 POP SWAP4 POP POP PUSH1 0x40 PUSH2 0x943 DUP9 DUP3 DUP10 ADD PUSH2 0x8A6 JUMP JUMPDEST SWAP2 POP POP SWAP3 SWAP6 POP SWAP3 SWAP6 SWAP1 SWAP4 POP JUMP JUMPDEST PUSH1 0x0 PUSH20 0xFFFFFFFFFFFFFFFFFFFFFFFFFFFFFFFFFFFFFFFF DUP3 AND SWAP1 POP SWAP2 SWAP1 POP JUMP JUMPDEST PUSH1 0x0 PUSH2 0x97B DUP3 PUSH2 0x950 JUMP JUMPDEST SWAP1 POP SWAP2 SWAP1 POP JUMP JUMPDEST PUSH2 0x98B DUP2 PUSH2 0x970 JUMP JUMPDEST DUP3 MSTORE POP POP JUMP JUMPDEST PUSH1 0x0 PUSH1 0x20 DUP3 ADD SWAP1 POP PUSH2 0x9A6 PUSH1 0x0 DUP4 ADD DUP5 PUSH2 0x982 JUMP JUMPDEST SWAP3 SWAP2 POP POP JUMP JUMPDEST PUSH32 0x4E487B7100000000000000000000000000000000000000000000000000000000 PUSH1 0x0 MSTORE PUSH1 0x22 PUSH1 0x4 MSTORE PUSH1 0x24 PUSH1 0x0 REVERT JUMPDEST PUSH1 0x0 PUSH1 0x2 DUP3 DIV SWAP1 POP PUSH1 0x1 DUP3 AND DUP1 PUSH2 0x9F3 JUMPI PUSH1 0x7F DUP3 AND SWAP2 POP JUMPDEST PUSH1 0x20 DUP3 LT DUP2 SUB PUSH2 0xA06 JUMPI PUSH2 0xA05 PUSH2 0x9AC JUMP JUMPDEST JUMPDEST POP SWAP2 SWAP1 POP JUMP JUMPDEST PUSH1 0x0 DUP2 SWAP1 POP SWAP3 SWAP2 POP POP JUMP JUMPDEST PUSH1 0x0 PUSH2 0xA23 DUP4 DUP6 PUSH2 0xA0C JUMP JUMPDEST SWAP4 POP PUSH2 0xA30 DUP4 DUP6 DUP5 PUSH2 0x602 JUMP JUMPDEST DUP3 DUP5 ADD SWAP1 POP SWAP4 SWAP3 POP POP POP JUMP JUMPDEST PUSH1 0x0 PUSH2 0xA49 DUP3 DUP5 DUP7 PUSH2 0xA17 JUMP JUMPDEST SWAP2 POP DUP2 SWAP1 POP SWAP4 SWAP3 POP POP POP JUMP JUMPDEST PUSH32 0x4E6F742061646D696E0000000000000000000000000000000000000000000000 PUSH1 0x0 DUP3 ADD MSTORE POP JUMP JUMPDEST PUSH1 0x0 PUSH2 0xA8B PUSH1 0x9 DUP4 PUSH2 0x6EE JUMP JUMPDEST SWAP2 POP PUSH2 0xA96 DUP3 PUSH2 0xA55 JUMP JUMPDEST PUSH1 0x20 DUP3 ADD SWAP1 POP SWAP2 SWAP1 POP JUMP JUMPDEST PUSH1 0x0 PUSH1 0x20 DUP3 ADD SWAP1 POP DUP2 DUP2 SUB PUSH1 0x0 DUP4 ADD MSTORE PUSH2 0xABA DUP2 PUSH2 0xA7E JUMP JUMPDEST SWAP1 POP SWAP2 SWAP1 POP JUMP JUMPDEST PUSH32 0x416C726561647920726567697374657265640000000000000000000000000000 PUSH1 0x0 DUP3 ADD MSTORE POP JUMP JUMPDEST PUSH1 0x0 PUSH2 0xAF7 PUSH1 0x12 DUP4 PUSH2 0x6EE JUMP JUMPDEST SWAP2 POP PUSH2 0xB02 DUP3 PUSH2 0xAC1 JUMP JUMPDEST PUSH1 0x20 DUP3 ADD SWAP1 POP SWAP2 SWAP1 POP JUMP JUMPDEST PUSH1 0x0 PUSH1 0x20 DUP3 ADD SWAP1 POP DUP2 DUP2 SUB PUSH1 0x0 DUP4 ADD MSTORE PUSH2 0xB26 DUP2 PUSH2 0xAEA JUMP JUMPDEST SWAP1 POP SWAP2 SWAP1 POP JUMP JUMPDEST PUSH1 0x0 DUP2 SWAP1 POP DUP2 PUSH1 0x0 MSTORE PUSH1 0x20 PUSH1 0x0 KECCAK256 SWAP1 POP SWAP2 SWAP1 POP JUMP JUMPDEST PUSH1 0x0 PUSH1 0x20 PUSH1 0x1F DUP4 ADD DIV SWAP1 POP SWAP2 SWAP1 POP JUMP JUMPDEST PUSH1 0x0 DUP3 DUP3 SHL SWAP1 POP SWAP3 SWAP2 POP POP JUMP JUMPDEST PUSH1 0x0 PUSH1 0x8 DUP4 MUL PUSH2 0xB8F PUSH32 0xFFFFFFFFFFFFFFFFFFFFFFFFFFFFFFFFFFFFFFFFFFFFFFFFFFFFFFFFFFFFFFFF DUP3 PUSH2 0xB52 JUMP JUMPDEST PUSH2 0xB99 DUP7 DUP4 PUSH2 0xB52 JUMP JUMPDEST SWAP6 POP DUP1 NOT DUP5 AND SWAP4 POP DUP1 DUP7 AND DUP5 OR SWAP3 POP POP POP SWAP4 SWAP3 POP POP POP JUMP JUMPDEST PUSH1 0x0 DUP2 SWAP1 POP SWAP2 SWAP1 POP JUMP JUMPDEST PUSH1 0x0 PUSH2 0xBD6 PUSH2 0xBD1 PUSH2 0xBCC DUP5 PUSH2 0x77D JUMP JUMPDEST PUSH2 0xBB1 JUMP JUMPDEST PUSH2 0x77D JUMP JUMPDEST SWAP1 POP SWAP2 SWAP1 POP JUMP JUMPDEST PUSH1 0x0 DUP2 SWAP1 POP SWAP2 SWAP1 POP JUMP JUMPDEST PUSH2 0xBF0 DUP4 PUSH2 0xBBB JUMP JUMPDEST PUSH2 0xC04 PUSH2 0xBFC DUP3 PUSH2 0xBDD JUMP JUMPDEST DUP5 DUP5 SLOAD PUSH2 0xB5F JUMP JUMPDEST DUP3 SSTORE POP POP POP POP JUMP JUMPDEST PUSH1 0x0 SWAP1 JUMP JUMPDEST PUSH2 0xC19 PUSH2 0xC0C JUMP JUMPDEST PUSH2 0xC24 DUP2 DUP5 DUP5 PUSH2 0xBE7 JUMP JUMPDEST POP POP POP JUMP JUMPDEST JUMPDEST DUP2 DUP2 LT ISZERO PUSH2 0xC48 JUMPI PUSH2 0xC3D PUSH1 0x0 DUP3 PUSH2 0xC11 JUMP JUMPDEST PUSH1 0x1 DUP2 ADD SWAP1 POP PUSH2 0xC2A JUMP JUMPDEST POP POP JUMP JUMPDEST PUSH1 0x1F DUP3 GT ISZERO PUSH2 0xC8D JUMPI PUSH2 0xC5E DUP2 PUSH2 0xB2D JUMP JUMPDEST PUSH2 0xC67 DUP5 PUSH2 0xB42 JUMP JUMPDEST DUP2 ADD PUSH1 0x20 DUP6 LT ISZERO PUSH2 0xC76 JUMPI DUP2 SWAP1 POP JUMPDEST PUSH2 0xC8A PUSH2 0xC82 DUP6 PUSH2 0xB42 JUMP JUMPDEST DUP4 ADD DUP3 PUSH2 0xC29 JUMP JUMPDEST POP POP JUMPDEST POP POP POP JUMP JUMPDEST PUSH1 0x0 DUP3 DUP3 SHR SWAP1 POP SWAP3 SWAP2 POP POP JUMP JUMPDEST PUSH1 0x0 PUSH2 0xCB0 PUSH1 0x0 NOT DUP5 PUSH1 0x8 MUL PUSH2 0xC92 JUMP JUMPDEST NOT DUP1 DUP4 AND SWAP2 POP POP SWAP3 SWAP2 POP POP JUMP JUMPDEST PUSH1 0x0 PUSH2 0xCC9 DUP4 DUP4 PUSH2 0xC9F JUMP JUMPDEST SWAP2 POP DUP3 PUSH1 0x2 MUL DUP3 OR SWAP1 POP SWAP3 SWAP2 POP POP JUMP JUMPDEST PUSH2 0xCE2 DUP3 PUSH2 0x6E3 JUMP JUMPDEST PUSH8 0xFFFFFFFFFFFFFFFF DUP2 GT ISZERO PUSH2 0xCFB JUMPI PUSH2 0xCFA PUSH2 0x556 JUMP JUMPDEST JUMPDEST PUSH2 0xD05 DUP3 SLOAD PUSH2 0x9DB JUMP JUMPDEST PUSH2 0xD10 DUP3 DUP3 DUP6 PUSH2 0xC4C JUMP JUMPDEST PUSH1 0x0 PUSH1 0x20 SWAP1 POP PUSH1 0x1F DUP4 GT PUSH1 0x1 DUP2 EQ PUSH2 0xD43 JUMPI PUSH1 0x0 DUP5 ISZERO PUSH2 0xD31 JUMPI DUP3 DUP8 ADD MLOAD SWAP1 POP JUMPDEST PUSH2 0xD3B DUP6 DUP3 PUSH2 0xCBD JUMP JUMPDEST DUP7 SSTORE POP PUSH2 0xDA3 JUMP JUMPDEST PUSH1 0x1F NOT DUP5 AND PUSH2 0xD51 DUP7 PUSH2 0xB2D JUMP JUMPDEST PUSH1 0x0 JUMPDEST DUP3 DUP2 LT ISZERO PUSH2 0xD79 JUMPI DUP5 DUP10 ADD MLOAD DUP3 SSTORE PUSH1 0x1 DUP3 ADD SWAP2 POP PUSH1 0x20 DUP6 ADD SWAP5 POP PUSH1 0x20 DUP2 ADD SWAP1 POP PUSH2 0xD54 JUMP JUMPDEST DUP7 DUP4 LT ISZERO PUSH2 0xD96 JUMPI DUP5 DUP10 ADD MLOAD PUSH2 0xD92 PUSH1 0x1F DUP10 AND DUP3 PUSH2 0xC9F JUMP JUMPDEST DUP4 SSTORE POP JUMPDEST PUSH1 0x1 PUSH1 0x2 DUP9 MUL ADD DUP9 SSTORE POP POP POP JUMPDEST POP POP POP POP POP POP JUMP JUMPDEST PUSH1 0x0 PUSH2 0xDB7 DUP4 DUP6 PUSH2 0x6EE JUMP JUMPDEST SWAP4 POP PUSH2 0xDC4 DUP4 DUP6 DUP5 PUSH2 0x602 JUMP JUMPDEST PUSH2 0xDCD DUP4 PUSH2 0x545 JUMP JUMPDEST DUP5 ADD SWAP1 POP SWAP4 SWAP3 POP POP POP JUMP JUMPDEST PUSH1 0x0 PUSH1 0x60 DUP3 ADD SWAP1 POP DUP2 DUP2 SUB PUSH1 0x0 DUP4 ADD MSTORE PUSH2 0xDF3 DUP2 DUP8 DUP10 PUSH2 0xDAB JUMP JUMPDEST SWAP1 POP DUP2 DUP2 SUB PUSH1 0x20 DUP4 ADD MSTORE PUSH2 0xE08 DUP2 DUP6 DUP8 PUSH2 0xDAB JUMP JUMPDEST SWAP1 POP PUSH2 0xE17 PUSH1 0x40 DUP4 ADD DUP5 PUSH2 0x6D4 JUMP JUMPDEST SWAP7 SWAP6 POP POP POP POP POP POP JUMP INVALID LOG2 PUSH5 0x6970667358 0x22 SLT KECCAK256 PUSH3 0x825B91 0xE5 SWAP1 COINBASE SWAP3 DUP10 0x29 0xC3 0x27 0xD5 CALL 0xD 0xDF 0xC6 SWAP10 DUP2 EXTCODECOPY 0xF AND REVERT 0xAA SWAP1 LOG4 REVERT 0xB6 0xB2 0xA5 SWAP5 CREATE2 PUSH5 0x736F6C6343 STOP ADDMOD EQ STOP CALLER "},"methodIdentifiers":{"admin()":"f851a440","devices(string)":"22233396","getDevice(string)":"b71a0346","registerDevice(string,string,bytes32)":"f16d6629"}}}}}