{
  "_format": "hh-sol-artifact-1",
  "contractName": "AccessControl",
  "sourceName": "contracts/AccessControl.sol",
  "abi": [
    {
      "inputs": [
        {
          "internalType": "address",
          "name": "registryAddr",
          "type": "address"
        }
      ],
      "stateMutability": "nonpayable",
      "type": "constructor"
    },
    {
      "anonymous": false,
      "inputs": [
        {
          "indexed": false,
          "internalType": "string",
          "name": "sender",
          "type": "string"
        },
        {
          "indexed": false,
          "internalType": "string",
          "name": "receiver",
          "type": "string"
        },
        {
          "indexed": false,
          "internalType": "string",
          "name": "reason",
          "type": "string"
        }
      ],
      "name": "AccessDenied",
      "type": "event"
    },
    {
      "anonymous": false,
      "inputs": [
        {
          "indexed": false,
          "internalType": "string",
          "name": "sender",
          "type": "string"
        },
        {
          "indexed": false,
          "internalType": "string",
          "name": "receiver",
          "type": "string"
        },
        {
          "indexed": false,
          "internalType": "uint256",
          "name": "timestamp",
          "type": "uint256"
        }
      ],
      "name": "AccessGranted",
      "type": "event"
    },
    {
      "inputs": [
        {
          "internalType": "string",
          "name": "senderId",
          "type": "string"
        },
        {
          "internalType": "string",
          "name": "receiverId",
          "type": "string"
        }
      ],
      "name": "checkAccess",
      "outputs": [
        {
          "internalType": "bool",
          "name": "",
          "type": "bool"
        }
      ],
      "stateMutability": "nonpayable",
      "type": "function"
    },
    {
      "inputs": [],
      "name": "registry",
      "outputs": [
        {
          "internalType": "contract DeviceRegistry",
          "name": "",
          "type": "address"
        }
      ],
      "stateMutability": "view",
      "type": "function"
    }
  ],
  "bytecode": "0x608060405234801561001057600080fd5b50604051610b5e380380610b5e833981810160405281019061003291906100db565b806000806101000a81548173ffffffffffffffffffffffffffffffffffffffff021916908373ffffffffffffffffffffffffffffffffffffffff16021790555050610108565b600080fd5b600073ffffffffffffffffffffffffffffffffffffffff82169050919050565b60006100a88261007d565b9050919050565b6100b88161009d565b81146100c357600080fd5b50565b6000815190506100d5816100af565b92915050565b6000602082840312156100f1576100f0610078565b5b60006100ff848285016100c6565b91505092915050565b610a47806101176000396000f3fe608060405234801561001057600080fd5b50600436106100365760003560e01c80637b1039991461003b5780639f719dd814610059575b600080fd5b610043610089565b6040516100509190610452565b60405180910390f35b610073600480360381019061006e91906104e6565b6100ad565b6040516100809190610582565b60405180910390f35b60008054906101000a900473ffffffffffffffffffffffffffffffffffffffff1681565b60008060008060009054906101000a900473ffffffffffffffffffffffffffffffffffffffff1673ffffffffffffffffffffffffffffffffffffffff1663b71a034688886040518363ffffffff1660e01b815260040161010e9291906105fb565b600060405180830381865afa15801561012b573d6000803e3d6000fd5b505050506040513d6000823e3d601f19601f820116820180604052508101906101549190610802565b50925092505060008060008054906101000a900473ffffffffffffffffffffffffffffffffffffffff1673ffffffffffffffffffffffffffffffffffffffff1663b71a034688886040518363ffffffff1660e01b81526004016101b89291906105fb565b600060405180830381865afa1580156101d5573d6000803e3d6000fd5b505050506040513d6000823e3d601f19601f820116820180604052508101906101fe9190610802565b50925092505082158061020f575080155b1561025e577f401e06d1c67109a0d6b4517a119ee809dfb1ed46a93bc098aef4e05106f8d4118989898960405161024994939291906108d1565b60405180910390a160009450505050506102fd565b600061026a8584610305565b905080156102b6577f782f1aed3ab0ec05a4acfc688a38588753c1da1ff5db0a13f800dbd59eb234fe8a8a8a8a426040516102a995949392919061092e565b60405180910390a16102f4565b7f401e06d1c67109a0d6b4517a119ee809dfb1ed46a93bc098aef4e05106f8d4118a8a8a8a6040516102eb94939291906109c3565b60405180910390a15b80955050505050505b949350505050565b6000808380519060200120905060008380519060200120905060007ff23ec0bb4210edd5cba85afd05127efcd2fc6a781bfed49188da1081670b22d8905060007fec03945fa2196716a09674e2cd6a57153479ecb05ea91e189e2688f793ab5381905060007f7a749b48408530f1fd2d5f006c4ce6784659e92480e0abb9bd153845467046a890508285036103a2576001955050505050506103cd565b8185036103c257818414806103b657508084145b955050505050506103cd565b838514955050505050505b92915050565b600073ffffffffffffffffffffffffffffffffffffffff82169050919050565b6000819050919050565b600061041861041361040e846103d3565b6103f3565b6103d3565b9050919050565b600061042a826103fd565b9050919050565b600061043c8261041f565b9050919050565b61044c81610431565b82525050565b60006020820190506104676000830184610443565b92915050565b6000604051905090565b600080fd5b600080fd5b600080fd5b600080fd5b600080fd5b60008083601f8401126104a6576104a5610481565b5b8235905067ffffffffffffffff8111156104c3576104c2610486565b5b6020830191508360018202830111156104df576104de61048b565b5b9250929050565b60008060008060408587031215610500576104ff610477565b5b600085013567ffffffffffffffff81111561051e5761051d61047c565b5b61052a87828801610490565b9450945050602085013567ffffffffffffffff81111561054d5761054c61047c565b5b61055987828801610490565b925092505092959194509250565b60008115159050919050565b61057c81610567565b82525050565b60006020820190506105976000830184610573565b92915050565b600082825260208201905092915050565b82818337600083830152505050565b6000601f19601f8301169050919050565b60006105da838561059d565b93506105e78385846105ae565b6105f0836105bd565b840190509392505050565b600060208201905081810360008301526106168184866105ce565b90509392505050565b6000819050919050565b6106328161061f565b811461063d57600080fd5b50565b60008151905061064f81610629565b92915050565b600080fd5b7f4e487b7100000000000000000000000000000000000000000000000000000000600052604160045260246000fd5b610692826105bd565b810181811067ffffffffffffffff821117156106b1576106b061065a565b5b80604052505050565b60006106c461046d565b90506106d08282610689565b919050565b600067ffffffffffffffff8211156106f0576106ef61065a565b5b6106f9826105bd565b9050602081019050919050565b60005b83811015610724578082015181840152602081019050610709565b60008484015250505050565b600061074361073e846106d5565b6106ba565b90508281526020810184848401111561075f5761075e610655565b5b61076a848285610706565b509392505050565b600082601f83011261078757610786610481565b5b8151610797848260208601610730565b91505092915050565b6107a981610567565b81146107b457600080fd5b50565b6000815190506107c6816107a0565b92915050565b6000819050919050565b6107df816107cc565b81146107ea57600080fd5b50565b6000815190506107fc816107d6565b92915050565b6000806000806080858703121561081c5761081b610477565b5b600061082a87828801610640565b945050602085015167ffffffffffffffff81111561084b5761084a61047c565b5b61085787828801610772565b9350506040610868878288016107b7565b9250506060610879878288016107ed565b91505092959194509250565b7f446576696365206e6f7420726567697374657265640000000000000000000000600082015250565b60006108bb60158361059d565b91506108c682610885565b602082019050919050565b600060608201905081810360008301526108ec8186886105ce565b905081810360208301526109018184866105ce565b90508181036040830152610914816108ae565b905095945050505050565b610928816107cc565b82525050565b600060608201905081810360008301526109498187896105ce565b9050818103602083015261095e8185876105ce565b905061096d604083018461091f565b9695505050505050565b7f526f6c65206e6f7420617574686f72697a656400000000000000000000000000600082015250565b60006109ad60138361059d565b91506109b882610977565b602082019050919050565b600060608201905081810360008301526109de8186886105ce565b905081810360208301526109f38184866105ce565b90508181036040830152610a06816109a0565b90509594505050505056fea2646970667358221220a3b19d4baa54eb947d40e193b3621479e845dd4850b0c722331a62e72e6dd04464736f6c63430008140033",
  "linkReferences": {},
  "deployedLinkReferences": {}
}