{
  "_format": "hh-sol-artifact-1",
  "contractName": "AuditLog",
  "sourceName": "contracts/AuditLog.sol",
  "abi": [
    {
      "anonymous": false,
      "inputs": [
        {
          "indexed": true,
          "internalType": "uint256",
          "name": "index",
          "type": "uint256"
        },
        {
          "indexed": false,
          "internalType": "string",
          "name": "sender",
          "type": "string"
        },
        {
          "indexed": false,
          "internalType": "string",
          "name": "receiver",
          "type": "string"
        },
        {
          "indexed": false,
          "internalType": "bool",
          "name": "granted",
          "type": "bool"
        }
      ],
      "name": "LogAdded",
      "type": "event"
    },
    {
      "inputs": [
        {
          "internalType": "string",
          "name": "senderId",
          "type": "string"
        },
        {
          "internalType": "string",
          "name": "receiverId",
          "type": "string"
        },
        {
          "internalType": "bytes32",
          "name": "messageHash",
          "type": "bytes32"
        },
        {
          "internalType": "bytes32",
          "name": "ipfsCID",
          "type": "bytes32"
        },
        {
          "internalType": "uint256",
          "name": "sigSize",
          "type": "uint256"
        },
        {
          "internalType": "bool",
          "name": "accessGranted",
          "type": "bool"
        }
      ],
      "name": "addLog",
      "outputs": [],
      "stateMutability": "nonpayable",
      "type": "function"
    },
    {
      "inputs": [
        {
          "internalType": "uint256",
          "name": "",
          "type": "uint256"
        }
      ],
      "name": "entries",
      "outputs": [
        {
          "internalType": "string",
          "name": "senderId",
          "type": "string"
        },
        {
          "internalType": "string",
          "name": "receiverId",
          "type": "string"
        },
        {
          "internalType": "bytes32",
          "name": "messageHash",
          "type": "bytes32"
        },
        {
          "internalType": "bytes32",
          "name": "ipfsCID",
          "type": "bytes32"
        },
        {
          "internalType": "uint256",
          "name": "sigSize",
          "type": "uint256"
        },
        {
          "internalType": "bool",
          "name": "accessGranted",
          "type": "bool"
        },
        {
          "internalType": "uint256",
          "name": "timestamp",
          "type": "uint256"
        }
      ],
      "stateMutability": "view",
      "type": "function"
    },
    {
      "inputs": [
        {
          "internalType": "uint256",
          "name": "i",
          "type": "uint256"
        }
      ],
      "name": "getLog",
      "outputs": [
        {
          "components": [
            {
              "internalType": "string",
              "name": "senderId",
              "type": "string"
            },
            {
              "internalType": "string",
              "name": "receiverId",
              "type": "string"
            },
            {
              "internalType": "bytes32",
              "name": "messageHash",
              "type": "bytes32"
            },
            {
              "internalType": "bytes32",
              "name": "ipfsCID",
              "type": "bytes32"
            },
            {
              "internalType": "uint256",
              "name": "sigSize",
              "type": "uint256"
            },
            {
              "internalType": "bool",
              "name": "accessGranted",
              "type": "bool"
            },
            {
              "internalType": "uint256",
              "name": "timestamp",
              "type": "uint256"
            }
          ],
          "internalType": "struct AuditLog.LogEntry",
          "name": "",
          "type": "tuple"
        }
      ],
      "stateMutability": "view",
      "type": "function"
    },
    {
      "inputs": [],
      "name": "totalLogs",
      "outputs": [
        {
          "internalType": "uint256",
          "name": "",
          "type": "uint256"
        }
      ],
      "stateMutability": "view",
      "type": "function"
    }
  ],
  "bytecode": "0x608060405234801561001057600080fd5b50610f07806100206000396000f3fe608060405234801561001057600080fd5b506004361061004c5760003560e01c80633206b2c6146100515780638fd17aa414610081578063b30906d41461009d578063e4ce0662146100d3575b600080fd5b61006b6004803603810190610066919061064d565b6100f1565b60405161007891906107f0565b60405180910390f35b61009b600480360381019061009691906108cf565b610294565b005b6100b760048036038101906100b2919061064d565b61044d565b6040516100ca9796959493929190610a15565b60405180910390f35b6100db6105bc565b6040516100e89190610a92565b60405180910390f35b6100f96105c8565b6000828154811061010d5761010c610aad565b5b90600052602060002090600702016040518060e001604052908160008201805461013690610b0b565b80601f016020809104026020016040519081016040528092919081815260200182805461016290610b0b565b80156101af5780601f10610184576101008083540402835291602001916101af565b820191906000526020600020905b81548152906001019060200180831161019257829003601f168201915b505050505081526020016001820180546101c890610b0b565b80601f01602080910402602001604051908101604052809291908181526020018280546101f490610b0b565b80156102415780601f1061021657610100808354040283529160200191610241565b820191906000526020600020905b81548152906001019060200180831161022457829003601f168201915b505050505081526020016002820154815260200160038201548152602001600482015481526020016005820160009054906101000a900460ff161515151581526020016006820154815250509050919050565b60006040518060e001604052808a8a8080601f016020809104026020016040519081016040528093929190818152602001838380828437600081840152601f19601f82011690508083019250505050505050815260200188888080601f016020809104026020016040519081016040528093929190818152602001838380828437600081840152601f19601f820116905080830192505050505050508152602001868152602001858152602001848152602001831515815260200142815250908060018154018082558091505060019003906000526020600020906007020160009091909190915060008201518160000190816103919190610d17565b5060208201518160010190816103a79190610d17565b5060408201518160020155606082015181600301556080820151816004015560a08201518160050160006101000a81548160ff02191690831515021790555060c08201518160060155505060016000805490506104049190610e18565b7f4b14f7b51175af862ccea1e0d2bbf9453254299acb7e3b4c140ba6c6dd983aa7898989898660405161043b959493929190610e88565b60405180910390a25050505050505050565b6000818154811061045d57600080fd5b906000526020600020906007020160009150905080600001805461048090610b0b565b80601f01602080910402602001604051908101604052809291908181526020018280546104ac90610b0b565b80156104f95780601f106104ce576101008083540402835291602001916104f9565b820191906000526020600020905b8154815290600101906020018083116104dc57829003601f168201915b50505050509080600101805461050e90610b0b565b80601f016020809104026020016040519081016040528092919081815260200182805461053a90610b0b565b80156105875780601f1061055c57610100808354040283529160200191610587565b820191906000526020600020905b81548152906001019060200180831161056a57829003601f168201915b5050505050908060020154908060030154908060040154908060050160009054906101000a900460ff16908060060154905087565b60008080549050905090565b6040518060e001604052806060815260200160608152602001600080191681526020016000801916815260200160008152602001600015158152602001600081525090565b600080fd5b600080fd5b6000819050919050565b61062a81610617565b811461063557600080fd5b50565b60008135905061064781610621565b92915050565b6000602082840312156106635761066261060d565b5b600061067184828501610638565b91505092915050565b600081519050919050565b600082825260208201905092915050565b60005b838110156106b4578082015181840152602081019050610699565b60008484015250505050565b6000601f19601f8301169050919050565b60006106dc8261067a565b6106e68185610685565b93506106f6818560208601610696565b6106ff816106c0565b840191505092915050565b6000819050919050565b61071d8161070a565b82525050565b61072c81610617565b82525050565b60008115159050919050565b61074781610732565b82525050565b600060e083016000830151848203600086015261076a82826106d1565b9150506020830151848203602086015261078482826106d1565b91505060408301516107996040860182610714565b5060608301516107ac6060860182610714565b5060808301516107bf6080860182610723565b5060a08301516107d260a086018261073e565b5060c08301516107e560c0860182610723565b508091505092915050565b6000602082019050818103600083015261080a818461074d565b905092915050565b600080fd5b600080fd5b600080fd5b60008083601f84011261083757610836610812565b5b8235905067ffffffffffffffff81111561085457610853610817565b5b6020830191508360018202830111156108705761086f61081c565b5b9250929050565b6108808161070a565b811461088b57600080fd5b50565b60008135905061089d81610877565b92915050565b6108ac81610732565b81146108b757600080fd5b50565b6000813590506108c9816108a3565b92915050565b60008060008060008060008060c0898b0312156108ef576108ee61060d565b5b600089013567ffffffffffffffff81111561090d5761090c610612565b5b6109198b828c01610821565b9850985050602089013567ffffffffffffffff81111561093c5761093b610612565b5b6109488b828c01610821565b9650965050604061095b8b828c0161088e565b945050606061096c8b828c0161088e565b935050608061097d8b828c01610638565b92505060a061098e8b828c016108ba565b9150509295985092959890939650565b600082825260208201905092915050565b60006109ba8261067a565b6109c4818561099e565b93506109d4818560208601610696565b6109dd816106c0565b840191505092915050565b6109f18161070a565b82525050565b610a0081610617565b82525050565b610a0f81610732565b82525050565b600060e0820190508181036000830152610a2f818a6109af565b90508181036020830152610a4381896109af565b9050610a5260408301886109e8565b610a5f60608301876109e8565b610a6c60808301866109f7565b610a7960a0830185610a06565b610a8660c08301846109f7565b98975050505050505050565b6000602082019050610aa760008301846109f7565b92915050565b7f4e487b7100000000000000000000000000000000000000000000000000000000600052603260045260246000fd5b7f4e487b7100000000000000000000000000000000000000000000000000000000600052602260045260246000fd5b60006002820490506001821680610b2357607f821691505b602082108103610b3657610b35610adc565b5b50919050565b7f4e487b7100000000000000000000000000000000000000000000000000000000600052604160045260246000fd5b60008190508160005260206000209050919050565b60006020601f8301049050919050565b600082821b905092915050565b600060088302610bcd7fffffffffffffffffffffffffffffffffffffffffffffffffffffffffffffffff82610b90565b610bd78683610b90565b95508019841693508086168417925050509392505050565b6000819050919050565b6000610c14610c0f610c0a84610617565b610bef565b610617565b9050919050565b6000819050919050565b610c2e83610bf9565b610c42610c3a82610c1b565b848454610b9d565b825550505050565b600090565b610c57610c4a565b610c62818484610c25565b505050565b5b81811015610c8657610c7b600082610c4f565b600181019050610c68565b5050565b601f821115610ccb57610c9c81610b6b565b610ca584610b80565b81016020851015610cb4578190505b610cc8610cc085610b80565b830182610c67565b50505b505050565b600082821c905092915050565b6000610cee60001984600802610cd0565b1980831691505092915050565b6000610d078383610cdd565b9150826002028217905092915050565b610d208261067a565b67ffffffffffffffff811115610d3957610d38610b3c565b5b610d438254610b0b565b610d4e828285610c8a565b600060209050601f831160018114610d815760008415610d6f578287015190505b610d798582610cfb565b865550610de1565b601f198416610d8f86610b6b565b60005b82811015610db757848901518255600182019150602085019450602081019050610d92565b86831015610dd45784890151610dd0601f891682610cdd565b8355505b6001600288020188555050505b505050505050565b7f4e487b7100000000000000000000000000000000000000000000000000000000600052601160045260246000fd5b6000610e2382610617565b9150610e2e83610617565b9250828203905081811115610e4657610e45610de9565b5b92915050565b82818337600083830152505050565b6000610e67838561099e565b9350610e74838584610e4c565b610e7d836106c0565b840190509392505050565b60006060820190508181036000830152610ea3818789610e5b565b90508181036020830152610eb8818587610e5b565b9050610ec76040830184610a06565b969550505050505056fea264697066735822122068fc9a89c56d44aec66966284a2e5f7e89123f089293d1df8dd3dd6c6b4cfe8864736f6c63430008140033",
  "linkReferences": {},
  "deployedLinkReferences": {}
}