{
  "_format": "hh-sol-artifact-1",
  "contractName": "DeviceRegistry",
  "sourceName": "contracts/DeviceRegistry.sol",
  "abi": [
    {
      "inputs": [],
      "stateMutability": "nonpayable",
      "type": "constructor"
    },
    {
      "anonymous": false,
      "inputs": [
        {
          "indexed": false,
          "internalType": "string",
          "name": "deviceId",
          "type": "string"
        },
        {
          "indexed": false,
          "internalType": "string",
          "name": "role",
          "type": "string"
        },
        {
          "indexed": false,
          "internalType": "bytes32",
          "name": "pkHash",
          "type": "bytes32"
        }
      ],
      "name": "DeviceRegistered",
      "type": "event"
    },
    {
      "inputs": [],
      "name": "admin",
      "outputs": [
        {
          "internalType": "address",
          "name": "",
          "type": "address"
        }
      ],
      "stateMutability": "view",
      "type": "function"
    },
    {
      "inputs": [
        {
          "internalType": "string",
          "name": "",
          "type": "string"
        }
      ],
      "name": "devices",
      "outputs": [
        {
          "internalType": "bytes32",
          "name": "pkHash",
          "type": "bytes32"
        },
        {
          "internalType": "string",
          "name": "role",
          "type": "string"
        },
        {
          "internalType": "bool",
          "name": "registered",
          "type": "bool"
        },
        {
          "internalType": "uint256",
          "name": "registeredAt",
          "type": "uint256"
        }
      ],
      "stateMutability": "view",
      "type": "function"
    },
    {
      "inputs": [
        {
          "internalType": "string",
          "name": "deviceId",
          "type": "string"
        }
      ],
      "name": "getDevice",
      "outputs": [
        {
          "internalType": "bytes32",
          "name": "",
          "type": "bytes32"
        },
        {
          "internalType": "string",
          "name": "",
          "type": "string"
        },
        {
          "internalType": "bool",
          "name": "",
          "type": "bool"
        },
        {
          "internalType": "uint256",
          "name": "",
          "type": "uint256"
        }
      ],
      "stateMutability": "view",
      "type": "function"
    },
    {
      "inputs": [
        {
          "internalType": "string",
          "name": "deviceId",
          "type": "string"
        },
        {
          "internalType": "string",
          "name": "role",
          "type": "string"
        },
        {
          "internalType": "bytes32",
          "name": "pkHash",
          "type": "bytes32"
        }
      ],
      "name": "registerDevice",
      "outputs": [],
      "stateMutability": "nonpayable",
      "type": "function"
    }
  ],
  "bytecode": "0x608060405234801561001057600080fd5b50336000806101000a81548173ffffffffffffffffffffffffffffffffffffffff021916908373ffffffffffffffffffffffffffffffffffffffff160217905550610e57806100606000396000f3fe608060405234801561001057600080fd5b506004361061004c5760003560e01c80632223339614610051578063b71a034614610084578063f16d6629146100b7578063f851a440146100d3575b600080fd5b61006b60048036038101906100669190610681565b6100f1565b60405161007b9493929190610796565b60405180910390f35b61009e60048036038101906100999190610842565b6101cc565b6040516100ae9493929190610796565b60405180910390f35b6100d160048036038101906100cc91906108bb565b6102e9565b005b6100db610503565b6040516100e89190610991565b60405180910390f35b600181805160208101820180518482526020830160208501208183528095505050505050600091509050806000015490806001018054610130906109db565b80601f016020809104026020016040519081016040528092919081815260200182805461015c906109db565b80156101a95780601f1061017e576101008083540402835291602001916101a9565b820191906000526020600020905b81548152906001019060200180831161018c57829003601f168201915b5050505050908060020160009054906101000a900460ff16908060030154905084565b600060606000806000600187876040516101e7929190610a3c565b90815260200160405180910390206040518060800160405290816000820154815260200160018201805461021a906109db565b80601f0160208091040260200160405190810160405280929190818152602001828054610246906109db565b80156102935780601f1061026857610100808354040283529160200191610293565b820191906000526020600020905b81548152906001019060200180831161027657829003601f168201915b505050505081526020016002820160009054906101000a900460ff161515151581526020016003820154815250509050806000015181602001518260400151836060015194509450945094505092959194509250565b60008054906101000a900473ffffffffffffffffffffffffffffffffffffffff1673ffffffffffffffffffffffffffffffffffffffff163373ffffffffffffffffffffffffffffffffffffffff1614610377576040517f08c379a000000000000000000000000000000000000000000000000000000000815260040161036e90610aa1565b60405180910390fd5b60018585604051610389929190610a3c565b908152602001604051809103902060020160009054906101000a900460ff16156103e8576040517f08c379a00000000000000000000000000000000000000000000000000000000081526004016103df90610b0d565b60405180910390fd5b604051806080016040528082815260200184848080601f016020809104026020016040519081016040528093929190818152602001838380828437600081840152601f19601f8201169050808301925050505050505081526020016001151581526020014281525060018686604051610462929190610a3c565b908152602001604051809103902060008201518160000155602082015181600101908161048f9190610cd9565b5060408201518160020160006101000a81548160ff021916908315150217905550606082015181600301559050507f74d072716b751d98c8782ee120c73b2835993997bd4933df5fd85c764f77c29f85858585856040516104f4959493929190610dd8565b60405180910390a15050505050565b60008054906101000a900473ffffffffffffffffffffffffffffffffffffffff1681565b6000604051905090565b600080fd5b600080fd5b600080fd5b600080fd5b6000601f19601f8301169050919050565b7f4e487b7100000000000000000000000000000000000000000000000000000000600052604160045260246000fd5b61058e82610545565b810181811067ffffffffffffffff821117156105ad576105ac610556565b5b80604052505050565b60006105c0610527565b90506105cc8282610585565b919050565b600067ffffffffffffffff8211156105ec576105eb610556565b5b6105f582610545565b9050602081019050919050565b82818337600083830152505050565b600061062461061f846105d1565b6105b6565b9050828152602081018484840111156106405761063f610540565b5b61064b848285610602565b509392505050565b600082601f8301126106685761066761053b565b5b8135610678848260208601610611565b91505092915050565b60006020828403121561069757610696610531565b5b600082013567ffffffffffffffff8111156106b5576106b4610536565b5b6106c184828501610653565b91505092915050565b6000819050919050565b6106dd816106ca565b82525050565b600081519050919050565b600082825260208201905092915050565b60005b8381101561071d578082015181840152602081019050610702565b60008484015250505050565b6000610734826106e3565b61073e81856106ee565b935061074e8185602086016106ff565b61075781610545565b840191505092915050565b60008115159050919050565b61077781610762565b82525050565b6000819050919050565b6107908161077d565b82525050565b60006080820190506107ab60008301876106d4565b81810360208301526107bd8186610729565b90506107cc604083018561076e565b6107d96060830184610787565b95945050505050565b600080fd5b600080fd5b60008083601f8401126108025761080161053b565b5b8235905067ffffffffffffffff81111561081f5761081e6107e2565b5b60208301915083600182028301111561083b5761083a6107e7565b5b9250929050565b6000806020838503121561085957610858610531565b5b600083013567ffffffffffffffff81111561087757610876610536565b5b610883858286016107ec565b92509250509250929050565b610898816106ca565b81146108a357600080fd5b50565b6000813590506108b58161088f565b92915050565b6000806000806000606086880312156108d7576108d6610531565b5b600086013567ffffffffffffffff8111156108f5576108f4610536565b5b610901888289016107ec565b9550955050602086013567ffffffffffffffff81111561092457610923610536565b5b610930888289016107ec565b93509350506040610943888289016108a6565b9150509295509295909350565b600073ffffffffffffffffffffffffffffffffffffffff82169050919050565b600061097b82610950565b9050919050565b61098b81610970565b82525050565b60006020820190506109a66000830184610982565b92915050565b7f4e487b7100000000000000000000000000000000000000000000000000000000600052602260045260246000fd5b600060028204905060018216806109f357607f821691505b602082108103610a0657610a056109ac565b5b50919050565b600081905092915050565b6000610a238385610a0c565b9350610a30838584610602565b82840190509392505050565b6000610a49828486610a17565b91508190509392505050565b7f4e6f742061646d696e0000000000000000000000000000000000000000000000600082015250565b6000610a8b6009836106ee565b9150610a9682610a55565b602082019050919050565b60006020820190508181036000830152610aba81610a7e565b9050919050565b7f416c726561647920726567697374657265640000000000000000000000000000600082015250565b6000610af76012836106ee565b9150610b0282610ac1565b602082019050919050565b60006020820190508181036000830152610b2681610aea565b9050919050565b60008190508160005260206000209050919050565b60006020601f8301049050919050565b600082821b905092915050565b600060088302610b8f7fffffffffffffffffffffffffffffffffffffffffffffffffffffffffffffffff82610b52565b610b998683610b52565b95508019841693508086168417925050509392505050565b6000819050919050565b6000610bd6610bd1610bcc8461077d565b610bb1565b61077d565b9050919050565b6000819050919050565b610bf083610bbb565b610c04610bfc82610bdd565b848454610b5f565b825550505050565b600090565b610c19610c0c565b610c24818484610be7565b505050565b5b81811015610c4857610c3d600082610c11565b600181019050610c2a565b5050565b601f821115610c8d57610c5e81610b2d565b610c6784610b42565b81016020851015610c76578190505b610c8a610c8285610b42565b830182610c29565b50505b505050565b600082821c905092915050565b6000610cb060001984600802610c92565b1980831691505092915050565b6000610cc98383610c9f565b9150826002028217905092915050565b610ce2826106e3565b67ffffffffffffffff811115610cfb57610cfa610556565b5b610d0582546109db565b610d10828285610c4c565b600060209050601f831160018114610d435760008415610d31578287015190505b610d3b8582610cbd565b865550610da3565b601f198416610d5186610b2d565b60005b82811015610d7957848901518255600182019150602085019450602081019050610d54565b86831015610d965784890151610d92601f891682610c9f565b8355505b6001600288020188555050505b505050505050565b6000610db783856106ee565b9350610dc4838584610602565b610dcd83610545565b840190509392505050565b60006060820190508181036000830152610df3818789610dab565b90508181036020830152610e08818587610dab565b9050610e1760408301846106d4565b969550505050505056fea264697066735822122062825b91e59041928929c327d5f10ddfc699813c0f16fdaa90a4fdb6b2a594f564736f6c63430008140033",
  "linkReferences": {},
  "deployedLinkReferences": {}
}